:020000040800F2
:10000000D8060020890100087D0D0008790D000840
:100010007B0D0008AF0200088D12000800000000F0
:10002000000000000000000000000000591000085F
:10003000B102000800000000571000085B10000823
:10004000A3010008A3010008A3010008A301000800
:10005000A3010008A3010008A3010008A3010008F0
:10006000A3010008B7020008A3010008A3010008CB
:10007000A3010008A3010008A3010008A3010008D0
:10008000A3010008A3010008A3010008A3010008C0
:10009000A3010008A3010008A3010008A3010008B0
:1000A000A3010008A3010008A3010008A3010008A0
:1000B000A3010008A3010008A3010008A301000890
:1000C000A3010008A3010008A3010008A301000880
:1000D000A3010008A3010008A3010008A301000870
:1000E000A3010008A3010008A301000800F002F822
:1000F00000F03AF80AA090E8000C82448344AAF188
:100100000107DA4501D100F02FF8AFF2090EBAE885
:100110000F0013F0010F18BFFB1A43F0010318473B
:10012000D02D0000F02D0000103A24BF78C878C10F
:10013000FAD8520724BF30C830C144BF04680C60ED
:10014000704700000023002400250026103A28BF35
:1001500078C1FBD8520728BF30C148BF0B60704739
:100160001FB51FBD10B510BD00F06CF81146FFF7AC
:10017000F7FF01F04BFC00F08AF803B4FFF7F2FF41
:1001800003BC00F08DF8000009488047094800478B
:10019000FEE7FEE7FEE7FEE7FEE7FEE7FEE7FEE737
:1001A000FEE7FEE704480549054A064B7047000094
:1001B000BD100008ED000008D8000020D80600207F
:1001C000D8020020D80200204FF0000200B51346EC
:1001D00094469646203922BFA0E80C50A0E80C5067
:1001E000B1F12001BFF4F7AF090728BFA0E80C5018
:1001F00048BF0CC05DF804EB890028BF40F8042B11
:1002000008BF704748BF20F8022B11F0804F18BF7D
:1002100000F8012B704770477047704710B500F029
:1002200009F8006810BD10B5044600F003F804603A
:1002300010BD00000048704774000020004870475F
:10024000740000207546FFF7F9FFAE4605006946C9
:10025000534620F00700854618B020B5FFF7A2FFEF
:10026000BDE820404FF000064FF000074FF00008B7
:100270004FF0000B21F00701AC46ACE8C009ACE838
:10028000C009ACE8C009ACE8C0098D46704710B59C
:100290000446AFF300802046BDE81040FFF76DBF75
:1002A00001491820ABBEFEE7260002007047FEE7BA
:1002B000704700F003B8082000F026B870B5044677
:1002C00000F028F90546601C02D004480078044478
:1002D00000F020F9401BA042FAD370BD00000020BE
:1002E00010B508280CD10821064800F009F918B10A
:1002F000BDE8104001F05EBBBDE8104001F052BB0C
:1003000010BD000000080140044910B50A6802420F
:1003100002D00860FFF7E4FF10BD000014040140A4
:100320002DE9F84FDFF8B891002409F1040A0AF129
:10033000040B23460F270BF1040EC9E00125A5404D
:100340002A40AA427DD1674ED1F804C0ACEB060822
:10035000B44532D014DCBCF1030F3AD009DCBCF157
:10036000000F2AD0BCF1010F1CD0BCF1020F31D11B
:100370001DE0BCF1110F17D0BCF1120F2AD119E00A
:10038000B8F5881F19D006DCB8F5803F15D0B8F550
:10039000801F1FD111E0B8F5001F0ED0B8F5041F63
:1003A00018D10AE0CB6815E0CB681B1D12E0CB68C2
:1003B00008330FE0CB680C330CE08B682BB1012BBA
:1003C0004FF0080303D0456104E0042302E0056117
:1003D00000E00023FF2A01D8064601E000F10406F0
:1003E0004FEA840501D9A5F12005D6F8008007FA67
:1003F00005FC28EA0C0803FA05F548EA0508C6F8E2
:1004000000804D68ED0062D5374DAE6946F00106BB
:10041000AE61AD6924F0030605F001050095334D8A
:1004200006EB050CDCF80850A607360F07FA06F8AD
:1004300025EA0805DFF8B880404503D14FF00008F1
:1004400017E044E0DFF8AC80404502D14FF00108EE
:100450000FE0DFF8A480404502D14FF0020808E029
:10046000DFF89880404502D14FF0030801E04FF0DB
:10047000040808FA06F848EA0508CCF808804D6830
:10048000D9F80060ED034D4601D5164300E09643D0
:100490002E604D68DAF80060AD03554601D516436D
:1004A00000E096432E604D68DBF80060ED025D468B
:1004B00001D5164300E096432E604D68DEF80060DB
:1004C000AD02754601D5164300E096432E60641CCC
:1004D0000D682A46E5407FF431AFBDE8F88F000093
:1004E0000004014000001110001002400000014013
:1004F00000080140000C01400010014000140140C0
:100500008068084000D0012070470AB1016170473F
:100510000904FBE7014880687047000000000020E4
:100520000248816802781144816070470000002011
:10053000074810B5016841F010010160032000F088
:1005400079F80F2000F006F800F024F8002010BD24
:100550000020024070B50D4D04464FF47A712878A2
:10056000B1FBF0F00A490968B1FBF0F000F0D0FAF5
:1005700048B9102C07D200222146501E00F03AF84C
:1005800000206C6070BD012070BD000000000020E4
:100590000C0000200E4808B5816941F0010181611D
:1005A000816901F001010091C16941F08051C1618F
:1005B000C06900F080500090052000F03BF805482D
:1005C000416821F0E06141F00071416008BD000028
:1005D0000010024000000140002809DB00F01F026B
:1005E000012191404009800000F1E020C0F8001195
:1005F00070470000F0B40E4B1B680C46C3F3022397
:10060000C3F10705042D00D90425191D072901D2BE
:10061000002300E0DB1E012606FA05F1491E2140F9
:1006200099409E40761E16403143F0BC00F043BE18
:100630000CED00E0064900F0070208684FF6FF03E2
:10064000184040EA0220034A104308607047000047
:100650000CED00E00000FA052DE9F0470F4605001B
:1006600061D0434E306800F00700B84209D23068CC
:1006700020F0070038433060306800F00700B842CF
:1006800051D128683B4C810712D5400703D56068DB
:1006900040F4E06060602878000703D5606840F4AB
:1006A000605060606068A96820F0F00008436060F6
:1006B0002878C00728D06868012810D0216802284F
:1006C00010D0890700292EDA616821F00301014367
:1006D0006160FFF71FFF804641F288390DE0216815
:1006E0008903EFE78901EDE7FFF714FFA0EB0801AD
:1006F000494502D90320BDE8F0876068696800F0C9
:100700000C00B0EB810FEFD1306800F00700B84269
:100710000BD9306820F0070038433060306800F0B3
:100720000700B84201D00120E5E72878400705D549
:100730006068E96820F4E06008436060287800079A
:1007400006D56068296920F4605040EAC100606005
:1007500000F018F86168084AC1F30311515CC84001
:100760000649086006480068FFF7F4FE0020C2E76B
:100770000020024000100240CA2700080C000020A0
:100780000400002012A185B00FC98DE80F0014A04D
:10079000144A006804905168134801F00C03042BBC
:1007A00010D0082B0ED1C1F38343C9031DF80300F9
:1007B0000AD5516804AAC1F34041515C0A4A50432A
:1007C000B0FBF1F005B0704708494843FAE7000074
:1007D00002030405060708090A0B0C0D0E0F101082
:1007E000010200000010024000127A0000093D00E2
:1007F0002DE9F84F040070D02078C04DC00749D0D3
:100800006868C0F38100012807D06868C0F38100E0
:10081000022809D16868C00306D52868800339D545
:1008200060680028E7D035E06068B0F5803F0BD005
:1008300010B1B0F5A02F11D0286820F480302860C6
:10084000286820F4802002E0286840F48030286086
:10085000606890B1FFF75EFE06460AE0286840F443
:1008600080202860F0E700BFFFF754FE801B64285B
:1008700073D828688003F7D50CE0FFF74BFE0646D7
:1008800005E000BFFFF746FE801B6428F0D828680B
:100890008003F7D420789A4E80074FF001094FF07B
:1008A000000839D5686810F00C0F07D06868C0F3ED
:1008B0008100022809D16868C00306D4286880072F
:1008C00014D52069012808D110E02069B0B1C6F81C
:1008D0000090FFF71FFE074605E00AE1FFF71AFE4A
:1008E000C01B0228C4D828688007F7D5286861692A
:1008F00020F0F80040EAC10028600DE0C6F8008052
:10090000FFF708FE074604E0FFF704FEC01B0228BD
:1009100023D828688007F7D4207800072CD5794899
:10092000A169D9B1C0F80090FFF7F4FD074604E0D3
:10093000FFF7F0FDC01B02280FD8686A8007F7D5C3
:1009400071484FF4FA510068B0FBF1F0009000BF1D
:100950000098411E0091FAD20EE080E0C0F80080BD
:10096000FFF7D8FD074604E0FFF7D4FDC01B0228BF
:1009700075D8686A8007F7D42078400760D5E869A1
:100980000027C00008D4E86940F08050E861E869B9
:10099000012700F0805000905C480168C90513D41D
:1009A0000168834641F480710160FFF7B3FD824620
:1009B00006E000BFFFF7AEFDA0EB0A0064284ED8AA
:1009C000DBF80000C005F5D5E06801280AD008B1C1
:1009D000052813D0286A20F001002862286A20F038
:1009E000040002E0286A40F001002862E06841F259
:1009F000883B98B1FFF78EFD82460BE0286A40F0F5
:100A000004002862EEE700BFFFF784FDA0EB0A01B7
:100A100059455AD8286A8007F6D50CE0FFF77AFDC9
:100A2000824605E0FFF776FDA0EB0A0159454CD858
:100A3000286A8007F6D41FB1E86920F08050E86189
:100A4000E06988B36968C1F38101022944D00228B2
:100A5000C6F8608004D0FFF75DFD044638E034E05E
:100A6000FFF758FD074604E0FFF754FDC01B0228BE
:100A70002BD828688001F7D4206AB0F5803F05D1D3
:100A80006868A16820F4003008436860D4E9080170
:100A90000843696821F4741108436860C6F86090DF
:100AA000FFF738FD044606E025E000BFFFF732FD02
:100AB000001B022809D828688001F7D51BE000BF79
:100AC000FFF728FD001B022802D90320BDE8F88F9C
:100AD00028688001F4D40EE00128F7D06868226A03
:100AE00000F48031914204D1616A00F470108842B0
:100AF00001D00120EAE70020E8E7000000100240F2
:100B000000004242800442420C000020007000407D
:100B100010B5401EB0F1807F01D3012010BD4FF011
:100B2000E02460610F21601700F0C5FB0020A06188
:100B300007202061002010BD70B5044690F83C00ED
:100B40000D4601280AD0012084F83C0042B1042A55
:100B500018D0082A2AD00C2A4DD139E0022070BDC5
:100B6000206800F0F1FA2068816941F00801816194
:100B70002068816921F004018161206881692A6906
:100B8000114311E0206800F007FB2068816941F4FF
:100B9000006181612068816921F480618161206840
:100BA00081692A6941EA0221816124E0206800F01C
:100BB0001FFB2068C16941F00801C1612068C1695B
:100BC00021F00401C1612068C1692A69114311E063
:100BD000206800F039FB2068C16941F40061C161FF
:100BE0002068C16921F48061C1612068C1692A69F6
:100BF00041EA0221C161002084F83C0070BD10B5BB
:100C0000040003D094F83D0010B107E0012010BDAE
:100C1000002084F83C00204600F01EF8022084F8F2
:100C20003D00211D206800F04BFA012084F84600A9
:100C300084F83E0084F83F0084F8400084F84100C6
:100C400084F8420084F8430084F8440084F84500A6
:100C500084F83D00002010BD00B5006885B0B0F1FB
:100C6000804F33D11A48C16941F00101C161C169A6
:100C700001F001010491816941F0080181618169FC
:100C800001F008010491816941F0010181618069ED
:100C9000694600F0010004900820009002200190B5
:100CA00001200290032003900A48FFF739FB0A480D
:100CB000416821F0E06141F000714160416821F438
:100CC000407141F0E06141F48071416005B000BDC8
:100CD00000100240000C01400000014010B5044625
:100CE000022249B104290ED0082913D094F84100FA
:100CF000012816D0012010BD94F83E000128F9D13A
:100D000084F83E200FE094F83F000128F2D184F8E7
:100D10003F2008E094F840000128EBD184F84020FF
:100D200001E084F841200122206800F0FFF90F491A
:100D30002068884203D1426C42F400424264206839
:100D4000884208D0B0F1804F05D00949884202D0CE
:100D50000849884204D1816801F00701062903D0BF
:100D6000016841F001010160002010BD002C01402C
:100D70000004004000080040FEE7FEE7FEE770B513
:100D800000240021204600F0ECF80025002000F0AF
:100D900051F96D1CEDB2802DF8D3641CE4B2082C1F
:100DA000EFD370BD10B586B0002002901048816965
:100DB00041F00801816180690E4C00F00800049048
:100DC0004FF4407000901120019003200390694679
:100DD0002046FFF7A5FA012211022046FFF795FBF6
:100DE000012251022046FFF790FB06B010BD000023
:100DF00000100240000C01402DE9F047164E00247F
:100E000007464FF080084FF40079B51528FA04F032
:100E1000384201D0012200E0002249463046FFF767
:100E200074FB012229463046FFF76FFB002229465A
:100E30003046FFF76AFB641CE4B2082CE6D30122BB
:100E400029463046FFF761FB29463046BDE8F047AA
:100E50000022FFF75ABB0000000C014070B50122D0
:100E60000B4D540221462846FFF74FFB0122160284
:100E700031462846FFF749FB002221462846FFF766
:100E800044FB31462846BDE870400022FFF73DBBD9
:100E9000000C014070B50A4D4FF400740022214649
:100EA0002846FFF732FB012211022846FFF72DFBEF
:100EB00021462846BDE870400122FFF726BB00000E
:100EC000000C014010B56420FFF7F8F9FFF76AFF46
:100ED000AE2000F09EF8D52000F09BF8802000F0B6
:100EE00098F8A82000F095F83F2000F092F8D32061
:100EF00000F08FF8002000F08CF8402000F089F816
:100F0000A12000F086F8C82000F083F8DA2000F075
:100F100080F8122000F07DF8812000F07AF8CF20D0
:100F200000F077F8D92000F074F8F12000F071F8A3
:100F3000DB2000F06EF8302000F06BF8A42000F009
:100F400068F8A62000F065F88D2000F062F8142003
:100F500000F05FF8AF2000F05CF8BDE81040FFF74C
:100F60000EBF10B50C4640F0B00000F052F8102053
:100F700040EA141000F04DF804F00F00BDE81040F6
:100F800000F047B82DE9F0410746CE004000083E8A
:100F9000801E15464FF0FF38F1B2C0B2FFF7E1FFF7
:100FA0001148002400EB05152819A0F5805090F891
:100FB000000E00F03FF8641CE4B2082CF4D308EBF8
:100FC0004700F1B2C0B2FFF7CCFF00242819A0F50A
:100FD000805090F8080E00F02DF8641CE4B2082C44
:100FE000F4D3BDE8F0810000DA2700082DE9F041D4
:100FF00015460E460746002406E03019C1B23846B1
:10100000FFF7C0FF641CE4B22A5D002AF5D1BDE8F9
:10101000F08110B50446FFF721FF7820FFF7ECFEC2
:101020000020FFF7E9FE2046FFF7E6FEBDE810408E
:10103000FFF730BF10B50446FFF710FF7820FFF729
:10104000DBFE4020FFF7D8FE2046FFF7D5FEBDE8C7
:101050001040FFF71FBF70477047FFF761BA30B508
:101060008FB028216846FFF7AFF814210AA8FFF7D0
:10107000ABF801210804CDE90010002402940225F8
:101080000491CDE907504FF4E01009906846FFF74E
:10109000AFFB08B172B6FEE70F20CDE90A054FF4A9
:1010A0008060CDE90C4002210AA80E94FFF7D4FA23
:1010B000002801D072B6FEE70FB030BD70470000C7
:1010C000F0B50268164B174C174D4FF08047984209
:1010D00005D0B84203D0A04201D0A84203D122F0EB
:1010E00070064A683243984205D0B84203D0A04205
:1010F00001D0A84203D122F44074CA6822434C694B
:1011000022F08002224302608A68C2620A68826218
:10111000984201D10969016301214161F0BD0000DC
:10112000002C0140000400400008004010B501F010
:101130001F030121046A99408C430462016A9A40AA
:101140001143016210BD000030B5026A22F00102B5
:101150000262026A4368846924F073050C682C43B8
:1011600022F002058A682A430A4DA8420BD122F0D8
:101170000805CA6823F440732A434D6922F004022B
:101180001D438B692B43436084614968416302625C
:1011900030BD0000002C014030B5026A22F0100280
:1011A0000262026A436884690D6824F4E64444EAF2
:1011B00005248D6822F0200242EA05120B4DA84258
:1011C0000ED1CD6822F0800242EA05124D6923F467
:1011D000406343EA85038D6922F0400243EA8503B8
:1011E0004360846149688163026230BD002C014024
:1011F00030B5026A22F480720262036A4268C469EE
:1012000023F4007324F073050C682C438D6843EAC3
:1012100005230C4DA8420ED1CD6823F4006343EAA8
:1012200005234D6922F4405242EA05128D6923F4E8
:10123000806342EA05124260C4614968C163036287
:1012400030BD0000002C014030B5026A22F480520B
:101250000262046A4268C3690D6823F4E64343EA04
:1012600005238D6824F4005444EA0534064DA84251
:1012700004D14D6922F4804242EA85124260C36182
:1012800049680164046230BD002C0140FEE749005A
:1012900050EAC12018BF04204A0D18BF40F00100D9
:1012A00040F2FF72B2EB515F08BF40F0020001282C
:1012B00008BF052070470907090E002804DB00F16C
:1012C000E02080F80014704700F00F0000F1E020EB
:1012D00080F8141D704700002DE9F74F144694B0B4
:1012E0000021C4E902111599079121F00045C9496F
:1012F0008D4206DC1599C4E9000117B00020BDE855
:10130000F08FC549DFF814A3A9423CDD0799C44E0C
:101310000029C44FC44A1599534619DD00F0A4FFB3
:10132000554506D0C14AC24B00F09EFFC4E90001FA
:101330000AE04FF0D352BE4B00F096FF32463B46D8
:1013400000F092FFC4E9000117B00120BDE8F08F62
:1013500000F0F0FB554506D0B44AB54B00F0EAFB6F
:10136000C4E900010AE04FF0D352B14B00F0E2FBB8
:1013700032463B4600F0DEFBC4E9000117B04FF0F7
:10138000FF30BDE8F08FAB49A942159978DB21F019
:10139000004183468846A84AA84B00F05BFE002225
:1013A000A74B00F0C7FB00F0CDFD099000F027FE31
:1013B00006460F469C4A534600F04CFE43465A46AA
:1013C00000F046FF80468A46984A994B3046394697
:1013D00000F040FE2A0D01250B924246534600F0D4
:1013E00037FF032DC4E9000139D00B98C1F30A512E
:1013F000401A05EB45111139814230DA9148C34654
:10140000784400EB0510CDF80CA00C90D0E9002337
:101410003046394600F01EFE02460B460491069007
:101420005846039900F020FF80468A4602460B4644
:101430005846039900F018FF049B069A00F014FF29
:1014400083460C9803913946D0E90223304600F0D8
:1014500001FE5A46039B00F007FF6D1CBDE707988D
:101460000028A2BF099817B0BDE8F08F616881F02D
:1014700000416160099817B04042BDE8F08FFFE776
:1014800084461598C1F31301C0F30A50A0F2F53059
:101490004FEA601800F01F06C6F1200013900020EC
:1014A0000690079041F4801E05206D4676B1664A8D
:1014B00008EB00017A4452F8213002EB8101B3407D
:1014C0004A68139922FA01F1194305E05F4908EBD4
:1014D0000002794451F82210A1FB0E27A1FB0C1346
:1014E0001A449A4234BF0123002303EB070A05EB99
:1014F0008003D3E901B70F448F4234BF012100219B
:1015000093448B4411B1934502D903E0934501D232
:10151000012100E00021C3E901B7514445F8201042
:10152000011EA0F10100C1DC0298059F00F10050EE
:10153000800F12900298DDE90356800000F05FFDF5
:10154000834628460D9100F071FD6FF01D0201F0F9
:10155000F6F8CDE90E01304600F068FD6FF03D026F
:1015600001F0EDF880468A46384600F05FFD6FF0E6
:101570005D0201F0E4F8074642465346119100F03F
:10158000D9FADDE90E2300F0D5FA5A460D9B00F09A
:10159000D1FA00250E465A4628460D9B00F064FEFF
:1015A000DDE90E2300F060FE4246534600F05CFE8B
:1015B0003A46119B00F04CFEDFF898A0244A5346AF
:1015C00000F048FD07468846234A244B314628460A
:1015D00000F040FD3A46434600F0ACFA0746884624
:1015E0004FF0A84253463146284600F033FD3A46B4
:1015F000434600F09FFA159A12F0004F04D0129A59
:1016000081F0004152421292C4E90001129817B0D1
:10161000BDE8F08FFB21E93F7CD90240FB21F93F77
:101620007370032E8A19A33B000040543163621A81
:1016300061B4D03DFB21394183C8C96D305FE43FBF
:101640000000E03FFC190000781900005A19000062
:10165000182D4454FB21F93D3326A611460B113CAD
:101660002DE9FF4D21F0004807460C46B8F1795F9F
:1016700008DA00F067FC002801BF0020324904B0FE
:10168000BDE8F08D3A4623461046194600F0E2FCCC
:10169000054602462D480E460B460621784400F0CA
:1016A0005DF82A46334600F0D5FCDDE90223824688
:1016B0008B463846214600F0CDFC04460F46524684
:1016C0005B462846314600F0C5FC22463B4600F00A
:1016D000CBFD07468A464FF0FF322846314601F0DF
:1016E0002EF81B4A90450ADA3A46534600F0BCFDF4
:1016F00004B00022BDE8F04D134B00F0A9BD154A1F
:101700004245A8BFA8F500154FF00004B8BF124D20
:1017100022462B4600F0A8FD0646884622462B4668
:101720000020094900F0A0FD04460D463A46534604
:101730003046414600F098FD04B022462B46BDE8F5
:10174000F04D00F085BD00000000F03F30170000B4
:101750003333D33F0000E93F0000D23F2DE9F04191
:101760004F1E00EBC7010446D1E9000115461E4695
:1017700037F006020DD02A46334600F06BFC7F1E80
:1017800004EBC703D3E9002300F0D4F937F00602D5
:10179000F1D1022F25D0042F13D0062F18BFBDE89A
:1017A000F0812A46334600F055FCD4E90A2300F0C4
:1017B000C1F92A46334600F04DFCD4E9082300F075
:1017C000B9F92A46334600F045FCD4E9062300F077
:1017D000B1F92A46334600F03DFCD4E9042300F079
:1017E000A9F92A46334600F035FCD4E9022300F07B
:1017F000A1F92A46334600F02DFCD4E90023BDE8C8
:10180000F04100F097B900002DE9FF4D054621F0A9
:10181000004084B00C46B0F1795F0BDA2846FFF740
:1018200036FD042808BF00F06FF8284608B02146AE
:10183000BDE8F08D2A460B46104600F00BFC06462C
:101840000F462A46234600F005FC804626488A4675
:1018500032463B4605217844FFF780FF83461098C7
:10186000029160B3214A224B4046514600F0F2FB00
:10187000CDE900015A4640465146029B00F0EAFB82
:1018800082468846DDE906014FF0FF3200F057FF3F
:101890005246434600F0E8FC32463B4600F0DAFB95
:1018A000DDE9062300F0E0FCDDE9002300F0DCFCCC
:1018B00008B02A462346BDE8F04D00F0C9BC0B46EF
:1018C0005A463046394600F0C5FB084A084B00F03E
:1018D00031F94246534600F0BDFB08B02A46234684
:1018E000BDE8F04D00F026B96E160000495555557B
:1018F0005555C5BF012200F022BF002213461046F5
:10190000114600F0C7B90000024A0020110700F09C
:1019100016BF000001FDFFFF0F4800B5816985B0CB
:1019200041F0040181618069694600F0040004907F
:101930000820009009480190012002900848FEF715
:10194000EFFC002201210920FEF754FE0920FEF7DA
:1019500043FE05B000BD0000001002400000311041
:101960000008014070B50E4A04464FF08040002543
:10197000D46082E823001046FFF741F90848610867
:10198000483004224160602185600160014648388A
:10199000FFF7D2F8BDE8704004210148FFF79EB977
:1019A00010000020012204210148FEF7AEBD000016
:1019B00000080140002204210148FEF7A6BD0000F6
:1019C000000801400F4810B5816986B041F004015C
:1019D000816180690C4C00F00400049004200090A8
:1019E00001200190002002900220039069462046C9
:1019F000FEF796FC002204212046FEF786FD06B085
:101A000010BD00000010024000080140FEF790FDEC
:101A1000FFF725FBFFF7D6FFFFF77EFFFFF752FA30
:101A2000012117A20846FFF7E1FA472140F2F3101F
:101A3000FFF798FF134E144F144DDFF85490002415
:101A40004FF0FF38204600F0F9FC00F023F80022A8
:101A5000334600F06FF800223B4600F0FBFA4246A6
:101A600000F06DFE00F09EFA296880B28863494656
:101A7000204600F00FFD04461420FEF71AFCE1E7B3
:101A8000637768000000F03F00C072401000002043
:101A9000CDCC4C3D00B5254B21F0004287B09A4299
:101AA00003DC0022134600922BE0214B9A4208D11E
:101AB00040B94FF00100FEF7B6FBFFF71EFF07B07D
:101AC00000BD03DBFFF716FF07B000BD02AAFFF75A
:101AD00003FC10F003014FF001000DD0012914D0D8
:101AE00002291AD00DF1080C9CE80F00FFF7B8FD91
:101AF00007B081F0004100BD0DF1080C00909CE89A
:101B00000F00FFF781FE07B000BD0DF1080C9CE847
:101B10000F00FFF7A5FD07B000BD0DF1080C009008
:101B20009CE80F00FFF770FEE2E70000FB21E93FB1
:101B30000000F07F10B591EA030F48BF83F0004327
:101B400000F19A83841A71EB030C05D2121943EB4E
:101B50000C03001B61EB0C01DFF824E14FEA115488
:101B6000A4EB135C1EEA430F18BF9EEA445F73D0D8
:101B700023EA0E03DCF1200E21EA045143F4801322
:101B800032D322FA0CFE10EB0E0023FA0CFE41EBCE
:101B90000E01CCF1200E03FA0EFE10EB0E0051F1F7
:101BA0000001B1F5801FCCF1200E32D201EB0451BF
:101BB00012FA0EF2BDE8104058BF7047401C38BF03
:101BC0005FEA420218BF7047002814BF20F00100EE
:101BD00041F100014FEA410313F5001F38BF704780
:101BE000A1F1C04100F02EBB012A43EB0302ACF18E
:101BF000200CDCF11F0E32BF4FF0000E23FA0CF365
:101C000010EB030041EB0451B4EB115FD0D0A1EB1A
:101C1000045101F5801149085FEA300001EB0451DD
:101C20000ED350F1000038BF12FA0EFE08D1BDE805
:101C30001040C9E7401C38BF5FEA4202CAD1C3E77F
:101C4000BDE810404FEA410313F5001F38BF70474D
:101C5000A1F1C04100F0F6BA9EEA445F08D011EA53
:101C60005E0FBDE8104004BF01F000410020704746
:101C7000BDE8104070B500F097FA00BF64FBBE3EAF
:101C80000000E0FF02494FF0000000F026BD00BF59
:101C90000000F87F2DE9C04130B4DFF8A0C23CEA73
:101CA000111418BF3CEA131400F0EC8081EA03051C
:101CB0001CEA111444EAD57418BF1CEA131500F08D
:101CC000C780A4EB05044FF0004545EAC12145EA71
:101CD000C32341EA505143EA525304F17F749942BD
:101CE00004F500344FEAC0204FEAC22208BF9042F8
:101CF00000F09C804FEA13650FF24016765D4FEAC4
:101D0000134506FB05F7C7F1807706FB07F74FEA97
:101D1000D737A7FB03687642C8F58038A7FB06CE05
:101D200038BFA8F1010807FB08E64FF0000EA6FB3C
:101D3000028CE6FB03CEDCF1000CCEF1004E38BF86
:101D4000AEF1010EA6FB0C584FF000074FF0000556
:101D5000E6FB0E87A1FB08C6A0FB07CE16EB0E061E
:101D600045F10005E1FB076515F1E04E7EBFA4F5E6
:101D700080345FEA46066D4116F1800745F10005A3
:101D80004FEA17274FEA066647EA0567A6F1DE46DF
:101D9000B6F1805F4FEA15251FD9384624F0010CB3
:101DA00005EBC471BCF1FE6F01EB0C1102D8F0BC65
:101DB000BDE8008124425CBF01F5801E9EEAC47F1D
:101DC00002D4F0BCBDE80081244238D4F0BCA1F1BB
:101DD000C041BDE8004100F035BA4FEAD22242EAE4
:101DE00043524FEAD323A7FB02864FEAD02040EAB2
:101DF000415007FB03661EEA0E0F4FEAD12105FB97
:101E0000026658BFA6EB0056B6EB00564FEA520EDC
:101E10004EEAC37E18EB0E0E56EB530EBDD518EBF3
:101E200002085E417F1C55F10005B6E74FF48015AE
:101E30004FF000074FF000064FF00008ADE7F0BC90
:101E40004FF0000001F1C04101F00041BDE8008108
:101E500011EA0C1F0CEA131500D00CE013EA0C1F5A
:101E600000F025804FF00000F0BC81EA030101F092
:101E70000041BDE80081F0BCBDE8004181EA0301FA
:101E800000F0E0B9F0BCBDE8004170B500F08CF99D
:101E9000097EFC3E00F007B881EA03014FF0000024
:101EA00001F00041704781EA030100F0CBB9F0BCBA
:101EB000BDE800414FF0000021497047FFFDFBF9EC
:101EC000F7F5F4F2F0EEEDEBE9E8E6E4E3E1E0DE6D
:101ED000DDDBDAD8D7D5D4D3D1D0CFCDCCCBCAC8DF
:101EE000C7C6C5C4C2C1C0BFBEBDBCBBBAB9B8B706
:101EF000B6B5B4B3B2B1B0AFAEADACABAAA9A8A8F9
:101F0000A7A6A5A4A3A3A2A1A09F9F9E9D9C9C9BC6
:101F10009A99999897979695959493939291919071
:101F20008F8F8E8E8D8C8C8B8B8A89898888878702
:101F30008685858484838382828181800000FF0777
:101F40000000F87F4FEA41034FEA5353A3F5806343
:101F5000D3F11E03C8BFD3F1210C0CDD4FF00042BA
:101F600042EAC12242EA505232FA03FC8CEAE17C96
:101F7000ACEBE1707047102BC4BF0020704703F535
:101F8000787CBCF1FF3F04D06FF0004282EA210070
:101F9000704770B500F008F949922480002070471E
:101FA000F2E700004FEA1153A3F58063D3F11E035B
:101FB000A8BFD3F1200C08DB4FF0004242EAC12257
:101FC00052EA505232FA03F0704709420BD4102BF8
:101FD000C4BF0020704703F5787CBCF1FF3F05D0FB
:101FE0004FF0FF3070474FF00000704770B500F0C1
:101FF000DBF800BF4992248000207047F0E710F022
:10200000004248BF4042B0FA80F310FA03F10AD010
:10201000C3F11D0303F580634FEA415002EB035205
:1020200002EBD12170474FF000007047B0FA80F307
:1020300010FA03F10AD0C3F11D0303F580634FEAE0
:1020400041504FEA035202EBD12170474FF000009C
:1020500070470000DFF848C170B51CEA111E1EBFB2
:102060001CEA13159EEA0C0F95EA0C0F00F06F8026
:1020700081EA030423EA4C134EEAD47E21EA4C1190
:1020800041F4801143F48013AE44A1FB024CA0FB49
:102090000365AEF17F7E361955EB0C05A1FB034CB1
:1020A0004CF10003A0FB021C16EB0C06654153F13A
:1020B0000003094218BF46F0010613F4007F0BD15C
:1020C0004FEA03314FEA0530340341EA155140EA43
:1020D00016506FF003020AE04FEAC3214FEAC52011
:1020E000F40241EA555140EA56506FF0020202EB09
:1020F0002E4201EB025585EACE710AD05FEA440C0C
:1021000018BF24F0004450F1000041F1000120EA22
:10211000D47040F2FE7C624500D270BDA84214BF6C
:102120004FF080444FF04044002E08BF0024BEF121
:10213000806FA8BFA1F1C041BDE8704080F28280ED
:102140004FF0000001F1C04101F0004170479EEAEC
:102150000C0F0CEA131518BF95EA0C0F06D04FF0C0
:10216000000081EA030E0EF0004170BD00F01CF883
:102170008900013E00F007B800F009B84FEA430CAF
:102180005FEA5C5C08D081EA030100F05BB84FEACB
:10219000410C5FEA5C5CF6D14FF0000001497047EA
:1021A0000000FF070000F87F0EF1020E2EF0030E74
:1021B0005EF8046B364205D4012A43EB030515F59E
:1021C000001F12D8012841EB010C1CF5001F0CD890
:1021D0000ED14FEAD17C15F5001F0CEB4C0C0CF125
:1021E000020C08BF4CEBD37C04E04FF0080C01E07C
:1021F0004FEAD37C0CEB4C0526FA05F606F00706F1
:10220000B6F1040C06D20EEB860CBDE870404CF023
:10221000010C6047DFE80CF0090B02024FF00041AF
:102220004FF00000A1F5002170BD194610460128AD
:1022300051EB010418BFD4F5001484BF002001F055
:10224000004170BD0808A0F500114FEA3101704748
:1022500091EA030F10B581F000413FF573AC83F0B4
:10226000004300F009B8000010B591EA030F48BF21
:1022700083F000433FF566AC841A71EB030C07D280
:1022800012198CF0004C43EB0C03001B61EB0C01AA
:10229000DFF8A4E14FEA1154A4EB135C1EEA430FEC
:1022A00018BF9EEA445F00F0B08023EA6E035242FA
:1022B00021EA0451C3EB6E0338BF5B1EDCF1200E34
:1022C00025D322FA0CFE10EB0E0043FA0CFE41EB74
:1022D0000E01CCF1200E03FA0EFE10EB0E0051F1B0
:1022E0000001CCF1200E29D412FA0EF201EB0451B8
:1022F000BDE8104058BF7047401C1CBFB2F1004FF2
:10230000704700280CBF491C20F00100704712EBF9
:10231000020E43EB030218BF4FF0010E4EEA4202D9
:10232000ACF1200CDCF11E0E54D943FA0CFE10EB7C
:102330000E0051F1FF31CCF11E0ED5D50EF1010E7C
:1023400012FA0EFE404141EB010101EB445C5FEAF1
:102350005C5C10D910EBDE7001EB045138BFBEF1AC
:10236000004FBDE8104018BF704700280CBF491C43
:1023700020F00100704730D24FEAD42C11F5001143
:1023800024F400641BD0B1FA81F20B3AA41AA41E03
:10239000D2F12003914030FA03F31943904001EB4E
:1023A000CC71002C01EB0451BDE81040A8BF704770
:1023B00001F1C0414FF0000001F000417047B0FA58
:1023C00080F310FA03F100D110BDE41A173C480560
:1023D000C90AE4E701EB045110BD491001EB0451B7
:1023E000BDE810404FEA300002E04FF000017047B6
:1023F0004A0008BF0042F8D0B2F5001F28BF70475E
:1024000001F000414FF0000070479EEA445F07D0A2
:1024100011EA5E0FBDE8104004BF002100207047A4
:10242000BDE8104070B5FFF7BFFE00BF40DFF63ECD
:1024300083F00041104670470000E0FF43004FEA80
:10244000D30C4FEA3C0C43401FBF40070CF16051D6
:1024500013F0FE4F70471CF0006F03D100200CF00A
:10246000004170470CF0004343EA507010B540EA59
:10247000CC0000F071F800BF000000924FEA0001AC
:10248000FFF7E0BE4FF000414FF00000A1F5002142
:102490007047000090EA010F48BF81F0004100F151
:1024A000AE80421A3CBF801A89184FEAD0524FF0D2
:1024B0007F4C1CEA410FA2EBD15318BF9CEA026F7C
:1024C00000F03B804FF0004C4CEA00204CEA012128
:1024D00021FA03FC10EB0C0C1ED202F1FF325FEA72
:1024E0001C2040EBC25038BF70471CF07F0F4FEAF2
:1024F000400C18BFBCF17F4F38BF7047C3F12003B9
:10250000994008BF20F00100BCF17F4F38BF7047F1
:10251000A0F1C04000F066B84FEA3C00000A40EB72
:10252000C25028BF1CF0FF0F4FEA400CE6D018BF86
:10253000BCF17F4F38BF7047EAE79CEA026F05D0D5
:1025400010EA5C0F08BF00F00040704710B500F0C3
:1025500003F800BF64FBBE3E0EF1020E2EF0030E28
:102560005EF8044B244204D44FEA4102B2F17F4F9B
:1025700011D84FEA4003B3F17F4F0CD80ED14FEA88
:10258000D07CB2F17F4F0CEB4C0C0CF1020C08BF6D
:102590004CEBD17C04E04FF0080C01E04FEAD17C19
:1025A0000CEB4C0324FA03F404F00704B4F1040C1C
:1025B00006D20EEB840CBDE810404CF0010C6047D5
:1025C000DFE80CF0070802024FF00040A0F58000A1
:1025D00010BD0846420018BFD2F1807288BF00F0DB
:1025E000004010BDFF2141EAD050C00570470000F7
:1025F00090EA010F48BF81F000413FF552AF421A07
:1026000004D882F00042A0EB020011444FEAD052FD
:102610004FF07F4C1CEA410FA2EBD15318BF9CEA4C
:10262000026F4AD04FF0004C4CEA00204CEA0121E6
:1026300021FA03FCB0EB0C0C0FD412F0FE0F36D0D5
:102640005FEA4C001DD5001240EBC25038BF704706
:102650001CF03F0F18BF70470BE0A2F101025FEAC8
:102660001C2040EBC25038BF70471CF07F0F18BFD2
:102670007047C3F12003994014BF401E20F00100B1
:10268000704780084FEA122308BF7047B0FA80FCF9
:10269000A2EB0C02CCF1280C60FA0CF093EA122F9A
:1026A00004BF00EBC25070474FEAC3707047130A73
:1026B0005FEADC1008BF7047F6E79CEA026F04D0BF
:1026C00010EA5C0F08BF0020704710B5FFF744FF09
:1026D00040DFF63E81F0004070470CF00F03092BFD
:1026E00008BF082000F059800A2B0BD0082B18BF18
:1026F000704708BF1CF0400F0AD04FF000004FF0A9
:10270000000170471CF0400F18BF4FF000407047A9
:102710001CF0100F08D020F0704300F07F4242EA16
:10272000D3014FEA4370704700F0604021F07F42D0
:1027300042EA000201F07F4040EA727070474FF0B9
:10274000FF0C4CF4E06C1CEA11531CBF9CEA030C18
:102750009445C2BFDA4201EB02517047002B0DD005
:10276000BCF1000F0FD0002A01F00041A4BF41F0DE
:10277000E04141F07F614FF00000704701F00041FF
:102780004FF00000704750EA01334FF09B0C18BF28
:102790004CF0806C7FF476AA70471CF4801F11D037
:1027A0001CF4E02F03D06FEACC31490070474FF0A2
:1027B0004050EFF3008222F0704242EA000282F3BE
:1027C000008870474FF000007047000000000000D4
:1027D00000000102030406070809000000000000D1
:1027E00000000000000000000000000000F80000F1
:1027F0000000000000333000000000100C06100C38
:102800000600000000000000000040C07840C078D2
:102810004000043F04043F040400007088FC0830BA
:102820000000001820FF211E0000F008F000E01852
:10283000000000211C031E211E0000F0088870000B
:1028400000001E2123241927211010160E0000005D
:1028500000000000000000000000000000E018047C
:102860000200000000071820400000020418E000E9
:1028700000000040201807000000404080F0804029
:1028800040000202010F01020200000000F00000FF
:1028900000000101011F0101010000000000000013
:1028A000000080B070000000000000000000000088
:1028B0000000000101010101010100000000000011
:1028C00000000030300000000000000000008060C8
:1028D0001804006018060100000000E0100808104D
:1028E000E000000F102020100F00001010F8000072
:1028F00000000020203F2020000000700808088809
:1029000070000030282422213000003008888848D8
:1029100030000018202020110E000000C02010F808
:10292000000000070424243F240000F808888808D9
:1029300008000019212020110E0000E010888818DE
:102940000000000F112020110E0000380808C838C0
:1029500008000000003F00000000007088080888A0
:102960007000001C222121221C0000E01008081029
:10297000E0000000312222110F00000000C0C00062
:102980000000000000303000000000000080000067
:102990000000000080600000000000008040201067
:1029A0000800000102040810200040404040404060
:1029B00040000404040404040400000810204080C3
:1029C00000000020100804020100007048080808F8
:1029D000F0000000003036010000C030C828E810C8
:1029E000E0000718272423140B000000C038E00083
:1029F0000000203C23020227382008F888888870CD
:102A00000000203F202020110E00C03008080808D8
:102A10003800071820202010080008F808080810BF
:102A2000E000203F202020100F0008F88888E808E8
:102A30001000203F20202320180008F88888E8088C
:102A40001000203F200003000000C03008080838B4
:102A5000000007182020221E020008F808000008C5
:102A6000F808203F210101213F20000808F808084C
:102A700000000020203F2020000000000808F80887
:102A80000800C08080807F00000008F888C02818F7
:102A90000800203F20012638200008F80800000028
:102AA0000000203F20202020300008F8F800F8F82F
:102AB0000800203F003F003F200008F830C0000819
:102AC000F808203F200007183F00E0100808081011
:102AD000E0000F10202020100F0008F80808080858
:102AE000F000203F210101010000E010080808105B
:102AF000E0000F18242438504F0008F88888888890
:102B00007000203F2000030C302000708808080867
:102B100038000038202121221C00180808F8080875
:102B200018000000203F2000000008F808000008FE
:102B3000F808001F202020201F000878880000C807
:102B40003808000007380E010000F80800F80008F7
:102B5000F800033C0700073C030008186880806801
:102B6000180820302C03032C30200838C800C8383F
:102B700008000000203F2000000010080808C838A6
:102B800008002038262120201800000000FE020244
:102B900002000000007F40404000000C30C00000F8
:102BA0000000000000010638C00000020202FE0022
:102BB0000000004040407F000000000004020202CC
:102BC0000400000000000000000000000000000001
:102BD00000008080808080808080000202040000ED
:102BE00000000000000000000000000080808080E5
:102BF00000000019242222223F2008F800808000D3
:102C00000000003F112020110E0000000080808095
:102C10000000000E1120202011000000008080889C
:102C2000F800000E112020103F20000080808080DE
:102C30000000001F222222221300008080F08888DA
:102C400088180020203F2020000000008080808025
:102C50008000006B94949493600008F8008080805A
:102C60000000203F210000203F20008098980000B5
:102C700000000020203F20200000000000809898E5
:102C8000000000C08080807F000008F80000808085
:102C90008000203F24022D302000000808F80000AA
:102CA00000000020203F2020000080808080808065
:102CB0008000203F20003F20003F808000808080F7
:102CC0000000203F210000203F2000008080808005
:102CD0000000001F202020201F0080800080800036
:102CE000000080FFA12020110E00000000808080E5
:102CF0008000000E112020A0FF8080808000808056
:102D0000800020203F212000010000008080808082
:102D100080000033242424241900008080E0808077
:102D200000000000001F20200000808000000080C4
:102D30008000001F202020103F2080808000008025
:102D4000808000010E300806010080800080008035
:102D500080800F300C030C300F00008080008080DA
:102D600080000020312E0E31200080808000008005
:102D7000808080818E7018060100008080808080B5
:102D800080000021302C2221300000000000807CD7
:102D9000020200000000003F404000000000FF0071
:102DA000000000000000FF0000000002027C800024
:102DB00000000040403F0000000000060101020248
:102DC00004040000000000000000000000000000FB
:102DD0004C5555555555A53F7751C1166CC156BF39
:102DE0009015CB19A001FA3EAD529C804F7E92BE49
:102DF000C4B1B4BD9EEE213ED43888BEE9FAA8BD68
:102E000000004054FB21F93F3163621A61B4D03DA8
:102E10000000601A61B4D03D7370032E8A19A33B81
:102E20000000002E8A19A33BC14920259A837B39D3
:102E300000000000000000006E83F9A22915444E36
:102E4000D15727FCC0DD34F5999562DB4190433CB6
:102E5000AB6351FE61C5BBDE3A6E24B7E0D24D4292
:102E6000EA2E49061C92D1091CEB1DFE3EA729B192
:102E7000F53582E88444BB2E26709CE9417E5FB420
:102E800039D69139F43953838B5F849C3B28F9BD43
:102E9000FF97F81F0F9805DE8B112FEF1F6D0A5A51
:102EA000CF7E366DB709CB27663F464F2DEA5F9E32
:102EB000C7BA27757BF1E5EBF739073DEA92528AED
:102EC000B15FFB6B085D8D1FA6F810111111813FDA
:102ED000D561C119A0012ABF7DFEB157E31DC73ED0
:102EE000EB9C2B8AE6E55ABE7CD5CF5A3AD9E53D14
:102EF000102F00080000002010000000280100082A
:102F0000202F000810000020C8060000440100081F
:102F10000100000010000000000000000024F40088
:04000005080000ED02
:00000001FF
