:020000040800F2
:10000000C806002089010008DB0F00088F0D0008DA
:10001000D90F00088F0200083D13000800000000FF
:10002000000000000000000000000000FF110008B8
:100030009102000800000000FD11000801120008F4
:10004000A3010008A3010008A3010008A301000800
:10005000A3010008A3010008A3010008A3010008F0
:10006000A301000893020008A3010008A3010008EF
:10007000A3010008A3010008A3010008A3010008D0
:10008000A3010008A3010008A3010008A3010008C0
:10009000A3010008A3010008A3010008A3010008B0
:1000A000A3010008A3010008A3010008A3010008A0
:1000B000A3010008A3010008A3010008A301000890
:1000C000A3010008A3010008A3010008A301000880
:1000D000A30100081D130008A3010008A3010008E4
:1000E000A3010008A3010008A301000800F002F822
:1000F00000F03AF80AA090E8000C82448344AAF188
:100100000107DA4501D100F02FF8AFF2090EBAE885
:100110000F0013F0010F18BFFB1A43F0010318473B
:100120004419000064190000103A24BF78C878C14F
:10013000FAD8520724BF30C830C144BF04680C60ED
:10014000704700000023002400250026103A28BF35
:1001500078C1FBD8520728BF30C148BF0B60704739
:100160001FB51FBD10B510BD00F058F81146FFF7C0
:10017000F7FF01F04FF900F076F803B4FFF7F2FF54
:1001800003BC00F07DF8000009488047094800479B
:10019000FEE7FEE7FEE7FEE7FEE7FEE7FEE7FEE737
:1001A000FEE7FEE704480549054A064B7047000094
:1001B00061120008ED000008C8000020C8060020F9
:1001C000C8020020C80200204FF0000200B513460C
:1001D00094469646203922BFA0E80C50A0E80C5067
:1001E000B1F12001BFF4F7AF090728BFA0E80C5018
:1001F00048BF0CC05DF804EB890028BF40F8042B11
:1002000008BF704748BF20F8022B11F0804F18BF7D
:1002100000F8012B7047704770477047754600F033
:100220002BF8AE4605006946534620F00700854688
:1002300018B020B5FFF7B6FFBDE820404FF000062C
:100240004FF000074FF000084FF0000B21F00701BE
:10025000AC46ACE8C009ACE8C009ACE8C009ACE801
:10026000C0098D46704710B50446AFF300802046A4
:10027000BDE81040FFF781BF0048704764000020D0
:1002800001491820ABBEFEE7260002007047FEE7DA
:100290007047082000F060B810B590F821100024D5
:1002A000022903D00421816301243DE001680A682A
:1002B00022F00E020A6001680A6822F001020A6058
:1002C0001A4A0168914201D1012121E0174A1432F2
:1002D000914201D110211BE0144A2832914201D1F0
:1002E000891515E0114A3C32914201D189140FE081
:1002F0000E4A5032914202D14FF4803108E00B4A4D
:100300006432914202D14FF4801101E04FF08071CC
:10031000064A083A5160012180F82110002180F836
:100320002010416B01B18847204610BD08000240F3
:1003300010B508280CD10821064800F009F918B1B9
:10034000BDE8104001F03AB8BDE8104001F02EB809
:1003500010BD000000080140044910B50A680242BF
:1003600002D00860FFF7E4FF10BD00001404014054
:100370002DE9F84FDFF8B891002409F1040A0AF1D9
:10038000040B23460F270BF1040EC9E00125A540FD
:100390002A40AA427DD1674ED1F804C0ACEB0608D2
:1003A000B44532D014DCBCF1030F3AD009DCBCF107
:1003B000000F2AD0BCF1010F1CD0BCF1020F31D1CB
:1003C0001DE0BCF1110F17D0BCF1120F2AD119E0BA
:1003D000B8F5881F19D006DCB8F5803F15D0B8F500
:1003E000801F1FD111E0B8F5001F0ED0B8F5041F13
:1003F00018D10AE0CB6815E0CB681B1D12E0CB6872
:1004000008330FE0CB680C330CE08B682BB1012B69
:100410004FF0080303D0456104E0042302E00561C6
:1004200000E00023FF2A01D8064601E000F104069F
:100430004FEA840501D9A5F12005D6F8008007FA16
:1004400005FC28EA0C0803FA05F548EA0508C6F891
:1004500000804D68ED0062D5374DAE6946F001066B
:10046000AE61AD6924F0030605F001050095334D3A
:1004700006EB050CDCF80850A607360F07FA06F85D
:1004800025EA0805DFF8B880404503D14FF00008A1
:1004900017E044E0DFF8AC80404502D14FF001089E
:1004A0000FE0DFF8A480404502D14FF0020808E0D9
:1004B000DFF89880404502D14FF0030801E04FF08B
:1004C000040808FA06F848EA0508CCF808804D68E0
:1004D000D9F80060ED034D4601D5164300E0964380
:1004E0002E604D68DAF80060AD03554601D516431D
:1004F00000E096432E604D68DBF80060ED025D463B
:1005000001D5164300E096432E604D68DEF800608A
:10051000AD02754601D5164300E096432E60641C7B
:100520000D682A46E5407FF431AFBDE8F88F000042
:1005300000040140000011100010024000000140C2
:1005400000080140000C014000100140001401406F
:100550008068084000D0012070470AB101617047EF
:100560000904FBE701488068704700000000002094
:1005700070B5040011D021684CF6CC4008602168A9
:1005800045F255500860D4E9000141602168A06837
:100590008860FFF7E7FF054609E0012070BD00BF56
:1005A000FFF7E0FF401B262801D9032070BD20681B
:1005B000C0680028F4D121684AF6AA20086000200B
:1005C00070BD00684AF6AA21016000207047000053
:1005D0000248816802781144816070470000002061
:1005E000074810B5016841F010010160032000F0D8
:1005F0006BF80F2000F006F800F024F8002010BD82
:100600000020024070B50D4D04464FF47A712878F1
:10061000B1FBF0F00A490968B1FBF0F000F0C2FA52
:1006200048B9102C07D200222146501E00F02CF8A9
:1006300000206C6070BD012070BD00000000002033
:100640000C0000200E4808B5816941F0010181616C
:10065000816901F001010091C16941F08051C161DE
:10066000C06900F080500090052000F02DF805488A
:10067000416821F0E06141F00071416008BD000077
:100680000010024000000140F0B40E4B1B680C4605
:10069000C3F30223C3F10705042D00D90425191D56
:1006A000072901D2002300E0DB1E012606FA05F12E
:1006B000491E214099409E40761E16403143F0BCB1
:1006C00000F03DBE0CED00E0064900F007020868AE
:1006D0004FF6FF03184040EA0220034A1043086027
:1006E000704700000CED00E00000FA052DE9F0472E
:1006F0000F46050061D0434E306800F00700B84255
:1007000009D2306820F0070038433060306800F0CC
:100710000700B84251D128683B4C810712D54007E9
:1007200003D5606840F4E06060602878000703D576
:10073000606840F4605060606068A96820F0F00074
:10074000084360602878C00728D06868012810D066
:100750002168022810D0890700292EDA616821F06B
:10076000030101436160FFF7FDFE804641F28839D5
:100770000DE021688903EFE78901EDE7FFF7F2FE5D
:10078000A0EB0801494502D90320BDE8F087606865
:10079000696800F00C00B0EB810FEFD1306800F019
:1007A0000700B8420BD9306820F0070038433060AA
:1007B000306800F00700B84201D00120E5E7287852
:1007C000400705D56068E96820F4E0600843606090
:1007D0002878000706D56068296920F4605040EA4F
:1007E000C100606000F018F86168084AC1F30311A5
:1007F000515CC8400649086006480068FFF702FFE0
:100800000020C2E7002002400010024064140008EB
:100810000C0000200400002012A185B00FC98DE853
:100820000F0014A0144A006804905168134801F0A6
:100830000C03042B10D0082B0ED1C1F38343C90342
:100840001DF803000AD5516804AAC1F34041515C68
:100850000A4A5043B0FBF1F005B0704708494843DD
:10086000FAE7000002030405060708090A0B0C0D4D
:100870000E0F1010010200000010024000127A005A
:1008800000093D002DE9F84F040070D02078C04DDC
:10089000C00749D06868C0F38100012807D06868A4
:1008A000C0F38100022809D16868C00306D5286812
:1008B000800339D560680028E7D035E06068B0F57E
:1008C000803F0BD010B1B0F5A02F11D0286820F4D4
:1008D00080302860286820F4802002E0286840F4F6
:1008E00080302860606890B1FFF73CFE06460AE061
:1008F000286840F480202860F0E700BFFFF732FE50
:10090000801B642873D828688003F7D50CE0FFF7B4
:1009100029FE064605E000BFFFF724FE801B642881
:10092000F0D828688003F7D420789A4E80074FF0DB
:1009300001094FF0000839D5686810F00C0F07D096
:100940006868C0F38100022809D16868C00306D432
:100950002868800714D52069012808D110E0206993
:10096000B0B1C6F80090FFF7FDFD074605E00AE1CB
:10097000FFF7F8FDC01B0228C4D828688007F7D508
:100980002868616920F0F80040EAC10028600DE0A5
:10099000C6F80080FFF7E6FD074604E0FFF7E2FD3A
:1009A000C01B022823D828688007F7D420780007C6
:1009B0002CD57948A169D9B1C0F80090FFF7D2FDD4
:1009C000074604E0FFF7CEFDC01B02280FD8686A77
:1009D0008007F7D571484FF4FA510068B0FBF1F089
:1009E000009000BF0098411E0091FAD20EE080E016
:1009F000C0F80080FFF7B6FD074604E0FFF7B2FD40
:100A0000C01B022875D8686A8007F7D42078400791
:100A100060D5E8690027C00008D4E86940F080503C
:100A2000E861E869012700F0805000905C480168A7
:100A3000C90513D40168834641F480710160FFF752
:100A400091FD824606E000BFFFF78CFDA0EB0A0097
:100A500064284ED8DBF80000C005F5D5E068012811
:100A60000AD008B1052813D0286A20F001002862B6
:100A7000286A20F0040002E0286A40F001002862A1
:100A8000E06841F2883B98B1FFF76CFD82460BE0CD
:100A9000286A40F004002862EEE700BFFFF762FD1D
:100AA000A0EB0A0159455AD8286A8007F6D50CE010
:100AB000FFF758FD824605E0FFF754FDA0EB0A0161
:100AC00059454CD8286A8007F6D41FB1E86920F050
:100AD0008050E861E06988B36968C1F38101022947
:100AE00044D00228C6F8608004D0FFF73BFD0446DE
:100AF00038E034E0FFF736FD074604E0FFF732FD4B
:100B0000C01B02282BD828688001F7D4206AB0F5D2
:100B1000803F05D16868A16820F400300843686010
:100B2000D4E908010843696821F474110843686036
:100B3000C6F86090FFF716FD044606E025E000BF0A
:100B4000FFF710FD001B022809D828688001F7D59F
:100B50001BE000BFFFF706FD001B022802D903209F
:100B6000BDE8F88F28688001F4D40EE00128F7D0A2
:100B70006868226A00F48031914204D1616A00F40D
:100B80007010884201D00120EAE70020E8E7000069
:100B90000010024000004242800442420C0000204B
:100BA0000070004010B5401EB0F1807F01D30120DD
:100BB00010BD4FF0E02460610F21601700F0BFFB13
:100BC0000020A06107202061002010BD70470000B8
:100BD00070B5026804461068D168536910F00F0FB1
:100BE00052D003F0010501F490762E435FD0C20786
:100BF00005D0CA0503D5E26B42F00102E263420769
:100C000005D5DA0703D0E26B42F00202E263820705
:100C100005D5DA0703D0E26B42F00402E263020773
:100C200007D501F020022A4303D0E26B42F008020C
:100C3000E263E26B002A33D0800604D5880602D531
:100C4000204600F024FB20684069E16BC0F380106F
:100C5000090700D428B3204600F00BFB2068416947
:100C600049061AD5416921F040014161606BA0B18C
:100C70002D494163606BFFF70FFB002810D0606BBC
:100C8000416BBDE870400847830610D58B060ED532
:100C90002046BDE8704000F0FABA2046FFF796FF04
:100CA00070BD2046FFF792FF0020E06370BD030691
:100CB0002BD50B0629D594F839002128F6D1A06848
:100CC000B0F5805F01D12069B0B1206A411C21627A
:100CD000216800784860E08C401E0004000CE0842D
:100CE000E4D12068C16821F08001C1602068C1683A
:100CF00041F04001C16070BD206A0088C0F3080067
:100D00005060206A801C2062E5E74006F3D5480663
:100D1000F1D5D168204621F04001D160202184F82E
:100D2000391000F033F870BD6312000890F83A30C3
:100D3000202B22D1F9B1F2B190F83830012B1CD020
:100D400081628285C2850021C163222280F83A2017
:100D500080F838100168CA6842F48072CA6001687D
:100D60004A6942F001024A610068C16841F020010D
:100D7000C1600020704701207047022070470000CA
:100D80000149012008707047100000207047FEE7FD
:100D90002DE9F843404E4FF0000805464FF4007926
:100DA0004446B715280601D5012200E00022494635
:100DB0003046FFF7D2FBADF8004004E0BDF800007C
:100DC000401CADF80000BDF800003228F6D3012227
:100DD00039463046FFF7C1FBADF8004005E000BFE3
:100DE000BDF80000401CADF80000BDF8000032283E
:100DF000F6D3002239463046FFF7AFFBADF800408E
:100E000005E000BFBDF80000401CADF80000BDF8D3
:100E100000003228F6D36806050E08F1010000F044
:100E2000FF08B8F1080FBDD3012249463046FFF74D
:100E300094FBADF8004004E0BDF80000401CADF8A4
:100E40000000BDF800003228F6D3012239463046B2
:100E5000FFF783FBADF8004005E000BFBDF80000E0
:100E6000401CADF80000BDF800003228F6D3002287
:100E700039463046FFF771FBADF8004005E000BF92
:100E8000BDF80000401CADF80000BDF8000032289D
:100E9000F6D3BDE8F8830000000C0140F8B501224C
:100EA000244D570239462846FFF757FB0024ADF87A
:100EB000004004E0BDF80000401CADF80000BDF8A3
:100EC00000003228F6D30122160231462846FFF7E9
:100ED00044FBADF8004004E0BDF80000401CADF854
:100EE0000000BDF800003228F6D30022394628461B
:100EF000FFF733FBADF8004005E000BFBDF8000090
:100F0000401CADF80000BDF800003228F6D30022E6
:100F100031462846FFF721FBADF8004005E000BF51
:100F2000BDF80000401CADF80000BDF800003228FC
:100F3000F6D3F8BD000C0140F8B51D4D4FF4007616
:100F4000002231462846FFF708FB0024ADF8004098
:100F500005E000BFBDF80000401CADF80000BDF882
:100F600000003228F6D3012211022846FFF7F5FAD5
:100F7000ADF8004005E000BFBDF80000401CADF832
:100F80000000BDF800003228F6D301223146284681
:100F9000FFF7E3FAADF8004005E000BFBDF8000040
:100FA000401CADF80000BDF800003228F6D3F8BDB3
:100FB000000C01400148FFF704BB0000580000206E
:100FC000044A034B1360C2E901011046FFF7D0BA8F
:100FD0000030004058000020FEE7FEE770B5002416
:100FE0000021204600F093F80025002000F0F5F8DD
:100FF0006D1CEDB2802DF8D3641CE4B2082CEFD345
:1010000070BD000010B586B00020029010488169C4
:1010100041F00801816180690E4C00F008000490E5
:101020004FF4407000901120019002200390694617
:101030002046FFF79DF9012211022046FFF78DFAA5
:10104000012251022046FFF788FA06B010BD0000C9
:1010500000100240000C01401CB500204FF47A72D1
:10106000009001900199491C01919142FAD3009995
:10107000491C00919142F4D3FFF7C4FFAE2000F069
:101080009BF8D52000F098F8802000F095F8A82073
:1010900000F092F83F2000F08FF8D32000F08CF899
:1010A000002000F089F8402000F086F8A12000F030
:1010B00083F8C82000F080F8DA2000F07DF81220D4
:1010C00000F07AF8812000F077F8CF2000F074F873
:1010D000D92000F071F8F12000F06EF8DB2000F06C
:1010E0006BF8302000F068F8A42000F065F8A62026
:1010F00000F062F88D2000F05FF8142000F05CF83A
:10110000AF2000F059F8BDE81C40FFF767BF10B5ED
:101110000C4640F0B00000F04FF8102040EA1410E8
:1011200000F04AF804F00F00BDE8104000F044B8A9
:101130002DE9F0410746CE004000083E801E1546CE
:101140004FF0FF38F1B2C0B2FFF7E1FF11480024C1
:1011500000EB05152819A0F5805090F8000E00F05E
:101160003CF8641CE4B2082CF4D308EB4700F1B25D
:10117000C0B2FFF7CCFF00242819A0F5805090F8EA
:10118000080E00F02AF8641CE4B2082CF4D3BDE881
:10119000F08100007414000870B514460E46054630
:1011A00006E03146701CC6B22846641CFFF7C0FF3B
:1011B0002278002AF5D170BD10B50446FFF76EFE07
:1011C0007820FFF7E5FD0020FFF7E2FD2046FFF75E
:1011D000DFFDBDE81040FFF7AFBE10B50446FFF7D6
:1011E0005DFE7820FFF7D4FD4020FFF7D1FD2046BB
:1011F000FFF7CEFDBDE81040FFF79EBE7047704779
:10120000FFF7E6B930B58FB028216846FEF7DCFF5E
:1012100014210AA8FEF7D8FF012000900004002442
:10122000CDE901040225CDE907504FF4E010099003
:101230006846FFF727FB08B172B6FEE70F20CDE93D
:101240000A054FF48060CDE90C4002210AA80E94F3
:10125000FFF74CFA002801D072B6FEE70FB030BDA0
:10126000704710B5406A0021C185C184FFF7AEFC0C
:1012700010BD0168CA6822F49072CA6001684A69A8
:1012800022F001024A61202180F83A10704710B51F
:1012900090F83A10222901D0022010BD82684FF444
:1012A00080539A4201D1016921B1816A9A421BD0CF
:1012B0004AB10AE00268816A5268C2F308020A80F1
:1012C000816A891C08E0026972B10268526802F002
:1012D0007F020A70816A491C8162C18D491E09041E
:1012E000090CC18503D016E002685268F1E7016875
:1012F000CA6822F02002CA600168CA6822F48072BB
:10130000CA6001684A6922F001024A61202180F81E
:101310003A10FFF735FD002010BD000010B505485C
:10132000FFF756FCBDE81040012203490148FFF7D2
:10133000FDBC00001800002011000020FEE7090796
:10134000090E002804DB00F1E02080F8001470474B
:1013500000F00F0000F1E02080F8141D704700003D
:101360000149086070470000140000204FF47A71B2
:10137000484300F001B8000070B54FF0E0240022AF
:1013800065690949A36909684843A1699942FCD084
:1013900002D2A3EB010302E0A5EB010633441A4499
:1013A0000B468242F1D370BD1400002001220421BB
:1013B0000148FFF7D2B800000008014000220421D4
:1013C0000148FFF7CAB80000000801400F4810B5F7
:1013D000816986B041F00401816180690C4C00F0A4
:1013E000040004900420009001200190002002904D
:1013F0000220039069462046FEF7BAFF002204212E
:101400002046FFF7AAF806B010BD00000010024009
:1014100000080140FFF7E4F8FFF7F4FEFFF7D6FFFE
:10142000FFF71AFE4820FFF79BFF012109A208469B
:10143000FFF7B2FEE2210320FFF7C2FDFFF7BAFD7E
:101440000A20FFF793FF012104A20846FFF7A4FE3C
:10145000F4E7000068756E67727920006574616951
:101460006E6720000000000000000000010203047D
:10147000060708090000000000000000000000004E
:1014800000000000000000F8000000000000003331
:101490003000000000100C06100C060000000000D8
:1014A0000000000040C07840C0784000043F0404C1
:1014B0003F040400007088FC08300000001820FF82
:1014C000211E0000F008F000E018000000211C03BD
:1014D0001E211E0000F00888700000001E21232439
:1014E0001927211010160E00000000000000000057
:1014F00000000000000000E01804020000000007E7
:101500001820400000020418E000000000402018ED
:1015100007000000404080F0804040000202010FC0
:1015200001020200000000F0000000000101011FA4
:1015300001010100000000000000000080B0700008
:101540000000000000000000000000000001010198
:101550000101010100000000000000000030300027
:101560000000000000000000806018040060180601
:101570000100000000E010080810E000000F10203B
:1015800020100F00001010F8000000000020203F85
:10159000202000000070080808887000003028240F
:1015A00022213000003008888848300000182020B0
:1015B00020110E000000C02010F8000000070424D5
:1015C000243F240000F8088888080800001921201A
:1015D00020110E0000E0108888180000000F112074
:1015E00020110E0000380808C83808000000003F2D
:1015F000000000000070880808887000001C22218C
:1016000021221C0000E010080810E0000000312238
:1016100022110F00000000C0C000000000000030D8
:10162000300000000000008000000000000080602A
:1016300000000000000080402010080000010204AB
:101640000810200040404040404040000404040492
:10165000040404000008102040800000002010084E
:1016600004020100007048080808F0000000003083
:1016700036010000C030C828E810E0000718272411
:1016800023140B000000C038E0000000203C2302BF
:101690000227382008F8888888700000203F202022
:1016A00020110E00C0300808080838000718202054
:1016B0002010080008F808080810E000203F20204B
:1016C00020100F0008F88888E8081000203F20202C
:1016D0002320180008F88888E8081000203F200020
:1016E00003000000C0300808083800000718202058
:1016F000221E020008F808000008F808203F210117
:1017000001213F20000808F8080800000020203FC1
:101710002020000000000808F8080800C080808031
:101720007F00000008F888C028180800203F20012A
:101730002638200008F8080000000000203F202084
:101740002020300008F8F800F8F80800203F003F9B
:10175000003F200008F830C00008F808203F2000B3
:1017600007183F00E01008080810E0000F102020C4
:1017700020100F0008F808080808F000203F210199
:1017800001010000E01008080810E0000F182424F0
:1017900038504F0008F8888888887000203F200063
:1017A000030C302000708808080838000038202119
:1017B00021221C00180808F8080818000000203F23
:1017C0002000000008F808000008F808001F20208A
:1017D00020201F000878880000C83808000007385B
:1017E0000E010000F80800F80008F800033C0700AC
:1017F000073C0300081868808068180820302C0314
:10180000032C30200838C800C83808000000203FEA
:101810002000000010080808C838080020382621D9
:1018200020201800000000FE020202000000007FDD
:1018300040404000000C30C00000000000000001EB
:101840000638C00000020202FE00000000404040D6
:101850007F000000000004020202040000000000FB
:101860000000000000000000000000008080808078
:101870008080808000020204000000000000000060
:1018800000000000000080808080000000192422F9
:1018900022223F2008F8008080000000003F112035
:1018A00020110E000000008080800000000E11203A
:1018B00020201100000000808088F800000E112018
:1018C00020103F200000808080800000001F222226
:1018D00022221300008080F0888888180020203F92
:1018E000202000000000808080808000006B9494A5
:1018F0009493600008F8008080800000203F210061
:1019000000203F2000809898000000000020203F29
:1019100020200000000000809898000000C0808017
:10192000807F000008F8000080808000203F2402B3
:101930002D302000000808F8000000000020203FA3
:10194000202000008080808080808000203F200058
:101950003F20003F8080008080800000203F2100E9
:1019600000203F200000808080800000001F202099
:1019700020201F00808000808000000080FFA120C8
:1019800020110E000000008080808000000E1120D9
:1019900020A0FF80808080008080800020203F2168
:1019A000200001000000808080808000003324241B
:1019B00024241900008080E0808000000000001FC7
:1019C000202000008080000000808000001F202078
:1019D00020103F20808080000080808000010E3039
:1019E0000806010080800080008080800F300C039A
:1019F0000C300F0000808000808080000020312E9D
:101A00000E312000808080000080808080818E7078
:101A10001806010000808080808080000021302C2A
:101A20002221300000000000807C02020000000043
:101A3000003F404000000000FF00000000000000E8
:101A4000FF0000000002027C800000000040403FD8
:101A50000000000000060101020204040000000072
:101A600000000000841A0008000000201800000098
:101A7000280100089C1A000818000020B006000089
:101A800044010008010000001000000000000000F8
:0C1A90000024F400000000000000000032
:04000005080000ED02
:00000001FF
