:020000040800F2
:10000000D8060020890100085D0D0008590D000880
:100010005B0D00088F0200086D1200080000000050
:10002000000000000000000000000000391000087F
:100030009102000800000000371000083B10000883
:10004000A3010008A3010008A3010008A301000800
:10005000A3010008A3010008A3010008A3010008F0
:10006000A301000897020008A3010008A3010008EB
:10007000A3010008A3010008A3010008A3010008D0
:10008000A3010008A3010008A3010008A3010008C0
:10009000A3010008A3010008A3010008A3010008B0
:1000A000A3010008A3010008A3010008A3010008A0
:1000B000A3010008A3010008A3010008A301000890
:1000C000A3010008A3010008A3010008A301000880
:1000D000A3010008A3010008A3010008A301000870
:1000E000A3010008A3010008A301000800F002F822
:1000F00000F03AF80AA090E8000C82448344AAF188
:100100000107DA4501D100F02FF8AFF2090EBAE885
:100110000F0013F0010F18BFFB1A43F0010318473B
:10012000C8180000E8180000103A24BF78C878C149
:10013000FAD8520724BF30C830C144BF04680C60ED
:10014000704700000023002400250026103A28BF35
:1001500078C1FBD8520728BF30C148BF0B60704739
:100160001FB51FBD10B510BD00F058F81146FFF7C0
:10017000F7FF01F009F900F076F803B4FFF7F2FF9A
:1001800003BC00F07DF8000009488047094800479B
:10019000FEE7FEE7FEE7FEE7FEE7FEE7FEE7FEE737
:1001A000FEE7FEE704480549054A064B7047000094
:1001B0009D100008ED000008D8000020D80600209F
:1001C000D8020020D80200204FF0000200B51346EC
:1001D00094469646203922BFA0E80C50A0E80C5067
:1001E000B1F12001BFF4F7AF090728BFA0E80C5018
:1001F00048BF0CC05DF804EB890028BF40F8042B11
:1002000008BF704748BF20F8022B11F0804F18BF7D
:1002100000F8012B7047704770477047754600F033
:100220002BF8AE4605006946534620F00700854688
:1002300018B020B5FFF7B6FFBDE820404FF000062C
:100240004FF000074FF000084FF0000B21F00701BE
:10025000AC46ACE8C009ACE8C009ACE8C009ACE801
:10026000C0098D46704710B50446AFF300802046A4
:10027000BDE81040FFF781BF0048704774000020C0
:1002800001491820ABBEFEE7260002007047FEE7DA
:10029000704700F003B8082000F026B870B5044697
:1002A00000F028F90546601C02D004480078044498
:1002B00000F020F9401BA042FAD370BD00000020DE
:1002C00010B508280CD10821064800F009F918B12A
:1002D000BDE8104001F02CB8BDE8104001F020B896
:1002E00010BD000000080140044910B50A68024230
:1002F00002D00860FFF7E4FF10BD000014040140C5
:100300002DE9F84FDFF8B891002409F1040A0AF149
:10031000040B23460F270BF1040EC9E00125A5406D
:100320002A40AA427DD1674ED1F804C0ACEB060842
:10033000B44532D014DCBCF1030F3AD009DCBCF177
:10034000000F2AD0BCF1010F1CD0BCF1020F31D13B
:100350001DE0BCF1110F17D0BCF1120F2AD119E02A
:10036000B8F5881F19D006DCB8F5803F15D0B8F570
:10037000801F1FD111E0B8F5001F0ED0B8F5041F83
:1003800018D10AE0CB6815E0CB681B1D12E0CB68E2
:1003900008330FE0CB680C330CE08B682BB1012BDA
:1003A0004FF0080303D0456104E0042302E0056137
:1003B00000E00023FF2A01D8064601E000F1040610
:1003C0004FEA840501D9A5F12005D6F8008007FA87
:1003D00005FC28EA0C0803FA05F548EA0508C6F802
:1003E00000804D68ED0062D5374DAE6946F00106DC
:1003F000AE61AD6924F0030605F001050095334DAB
:1004000006EB050CDCF80850A607360F07FA06F8CD
:1004100025EA0805DFF8B880404503D14FF0000811
:1004200017E044E0DFF8AC80404502D14FF001080E
:100430000FE0DFF8A480404502D14FF0020808E049
:10044000DFF89880404502D14FF0030801E04FF0FB
:10045000040808FA06F848EA0508CCF808804D6850
:10046000D9F80060ED034D4601D5164300E09643F0
:100470002E604D68DAF80060AD03554601D516438D
:1004800000E096432E604D68DBF80060ED025D46AB
:1004900001D5164300E096432E604D68DEF80060FB
:1004A000AD02754601D5164300E096432E60641CEC
:1004B0000D682A46E5407FF431AFBDE8F88F0000B3
:1004C0000004014000001110001002400000014033
:1004D00000080140000C01400010014000140140E0
:1004E0008068084000D0012070470AB10161704760
:1004F0000904FBE701488068704700000000002005
:100500000248816802781144816070470000002031
:10051000074810B5016841F010010160032000F0A8
:1005200079F80F2000F006F800F024F8002010BD44
:100530000020024070B50D4D04464FF47A712878C2
:10054000B1FBF0F00A490968B1FBF0F000F0D0FA15
:1005500048B9102C07D200222146501E00F03AF86C
:1005600000206C6070BD012070BD00000000002004
:100570000C0000200E4808B5816941F0010181613D
:10058000816901F001010091C16941F08051C161AF
:10059000C06900F080500090052000F03BF805484D
:1005A000416821F0E06141F00071416008BD000048
:1005B0000010024000000140002809DB00F01F028B
:1005C000012191404009800000F1E020C0F80011B5
:1005D00070470000F0B40E4B1B680C46C3F30223B7
:1005E000C3F10705042D00D90425191D072901D2DF
:1005F000002300E0DB1E012606FA05F1491E21401A
:1006000099409E40761E16403143F0BC00F02FBE4C
:100610000CED00E0064900F0070208684FF6FF0302
:10062000184040EA0220034A104308607047000067
:100630000CED00E00000FA052DE9F0470F4605003B
:1006400061D0434E306800F00700B84209D23068EC
:1006500020F0070038433060306800F00700B842EF
:1006600051D128683B4C810712D5400703D56068FB
:1006700040F4E06060602878000703D5606840F4CB
:10068000605060606068A96820F0F0000843606016
:100690002878C00728D06868012810D0216802286F
:1006A00010D0890700292EDA616821F00301014387
:1006B0006160FFF71FFF804641F288390DE0216835
:1006C0008903EFE78901EDE7FFF714FFA0EB0801CD
:1006D000494502D90320BDE8F0876068696800F0E9
:1006E0000C00B0EB810FEFD1306800F00700B8428A
:1006F0000BD9306820F0070038433060306800F0D4
:100700000700B84201D00120E5E72878400705D569
:100710006068E96820F4E0600843606028780007BA
:1007200006D56068296920F4605040EAC100606025
:1007300000F018F86168084AC1F30311515CC84021
:100740000649086006480068FFF7F4FE0020C2E78B
:100750000020024000100240E81300080C000020B6
:100760000400002012A185B00FC98DE80F0014A06D
:10077000144A006804905168134801F00C03042BDC
:1007800010D0082B0ED1C1F38343C9031DF8030019
:100790000AD5516804AAC1F34041515C0A4A50434A
:1007A000B0FBF1F005B0704708494843FAE7000094
:1007B00002030405060708090A0B0C0D0E0F1010A2
:1007C000010200000010024000127A0000093D0002
:1007D0002DE9F84F040070D02078C04DC00749D0F3
:1007E0006868C0F38100012807D06868C0F3810001
:1007F000022809D16868C00306D52868800339D566
:1008000060680028E7D035E06068B0F5803F0BD025
:1008100010B1B0F5A02F11D0286820F480302860E6
:10082000286820F4802002E0286840F480302860A6
:10083000606890B1FFF75EFE06460AE0286840F463
:1008400080202860F0E700BFFFF754FE801B64287B
:1008500073D828688003F7D50CE0FFF74BFE0646F7
:1008600005E000BFFFF746FE801B6428F0D828682B
:100870008003F7D420789A4E80074FF001094FF09B
:10088000000839D5686810F00C0F07D06868C0F30D
:100890008100022809D16868C00306D4286880074F
:1008A00014D52069012808D110E02069B0B1C6F83C
:1008B0000090FFF71FFE074605E00AE1FFF71AFE6A
:1008C000C01B0228C4D828688007F7D5286861694A
:1008D00020F0F80040EAC10028600DE0C6F8008072
:1008E000FFF708FE074604E0FFF704FEC01B0228DE
:1008F00023D828688007F7D4207800072CD57948BA
:10090000A169D9B1C0F80090FFF7F4FD074604E0F3
:10091000FFF7F0FDC01B02280FD8686A8007F7D5E3
:1009200071484FF4FA510068B0FBF1F0009000BF3D
:100930000098411E0091FAD20EE080E0C0F80080DD
:10094000FFF7D8FD074604E0FFF7D4FDC01B0228DF
:1009500075D8686A8007F7D42078400760D5E869C1
:100960000027C00008D4E86940F08050E861E869D9
:10097000012700F0805000905C480168C90513D43D
:100980000168834641F480710160FFF7B3FD824640
:1009900006E000BFFFF7AEFDA0EB0A0064284ED8CA
:1009A000DBF80000C005F5D5E06801280AD008B1E1
:1009B000052813D0286A20F001002862286A20F058
:1009C000040002E0286A40F001002862E06841F279
:1009D000883B98B1FFF78EFD82460BE0286A40F015
:1009E00004002862EEE700BFFFF784FDA0EB0A01D8
:1009F00059455AD8286A8007F6D50CE0FFF77AFDEA
:100A0000824605E0FFF776FDA0EB0A0159454CD878
:100A1000286A8007F6D41FB1E86920F08050E861A9
:100A2000E06988B36968C1F38101022944D00228D2
:100A3000C6F8608004D0FFF75DFD044638E034E07E
:100A4000FFF758FD074604E0FFF754FDC01B0228DE
:100A50002BD828688001F7D4206AB0F5803F05D1F3
:100A60006868A16820F4003008436860D4E9080190
:100A70000843696821F4741108436860C6F86090FF
:100A8000FFF738FD044606E025E000BFFFF732FD22
:100A9000001B022809D828688001F7D51BE000BF99
:100AA000FFF728FD001B022802D90320BDE8F88FBC
:100AB00028688001F4D40EE00128F7D06868226A23
:100AC00000F48031914204D1616A00F470108842D0
:100AD00001D00120EAE70020E8E700000010024012
:100AE00000004242800442420C000020007000409E
:100AF00010B5401EB0F1807F01D3012010BD4FF032
:100B0000E02460610F21601700F0B1FB0020A061BC
:100B100007202061002010BD70B5044690F83C000D
:100B20000D4601280AD0012084F83C0042B1042A75
:100B300018D0082A2AD00C2A4DD139E0022070BDE5
:100B4000206800F0F1FA2068816941F008018161B4
:100B50002068816921F004018161206881692A6926
:100B6000114311E0206800F007FB2068816941F41F
:100B7000006181612068816921F480618161206860
:100B800081692A6941EA0221816124E0206800F03C
:100B90001FFB2068C16941F00801C1612068C1697B
:100BA00021F00401C1612068C1692A69114311E083
:100BB000206800F039FB2068C16941F40061C1611F
:100BC0002068C16921F48061C1612068C1692A6916
:100BD00041EA0221C161002084F83C0070BD10B5DB
:100BE000040003D094F83D0010B107E0012010BDCF
:100BF000002084F83C00204600F01EF8022084F813
:100C00003D00211D206800F04BFA012084F84600C9
:100C100084F83E0084F83F0084F8400084F84100E6
:100C200084F8420084F8430084F8440084F84500C6
:100C300084F83D00002010BD00B5006885B0B0F11B
:100C4000804F33D11A48C16941F00101C161C169C6
:100C500001F001010491816941F00801816181691C
:100C600001F008010491816941F00101816180690D
:100C7000694600F0010004900820009002200190D5
:100C800001200290032003900A48FFF739FB0A482D
:100C9000416821F0E06141F000714160416821F458
:100CA000407141F0E06141F48071416005B000BDE8
:100CB00000100240000C01400000014010B5044645
:100CC000022249B104290ED0082913D094F841001A
:100CD000012816D0012010BD94F83E000128F9D15A
:100CE00084F83E200FE094F83F000128F2D184F808
:100CF0003F2008E094F840000128EBD184F8402020
:100D000001E084F841200122206800F0FFF90F493A
:100D10002068884203D1426C42F400424264206859
:100D2000884208D0B0F1804F05D00949884202D0EE
:100D30000849884204D1816801F00701062903D0DF
:100D4000016841F001010160002010BD002C01404C
:100D50000004004000080040FEE7FEE7FEE770B533
:100D600000240021204600F0ECF80025002000F0CF
:100D700051F96D1CEDB2802DF8D3641CE4B2082C3F
:100D8000EFD370BD10B586B0002002901048816985
:100D900041F00801816180690E4C00F00800049068
:100DA0004FF4407000901120019003200390694699
:100DB0002046FFF7A5FA012211022046FFF795FB16
:100DC000012251022046FFF790FB06B010BD000043
:100DD00000100240000C01402DE9F047164E00249F
:100DE00007464FF080084FF40079B51528FA04F053
:100DF000384201D0012200E0002249463046FFF788
:100E000074FB012229463046FFF76FFB002229467A
:100E10003046FFF76AFB641CE4B2082CE6D30122DB
:100E200029463046FFF761FB29463046BDE8F047CA
:100E30000022FFF75ABB0000000C014070B50122F0
:100E40000B4D540221462846FFF74FFB01221602A4
:100E500031462846FFF749FB002221462846FFF786
:100E600044FB31462846BDE870400022FFF73DBBF9
:100E7000000C014070B50A4D4FF400740022214669
:100E80002846FFF732FB012211022846FFF72DFB0F
:100E900021462846BDE870400122FFF726BB00002E
:100EA000000C014010B56420FFF7F8F9FFF76AFF66
:100EB000AE2000F09EF8D52000F09BF8802000F0D6
:100EC00098F8A82000F095F83F2000F092F8D32081
:100ED00000F08FF8002000F08CF8402000F089F836
:100EE000A12000F086F8C82000F083F8DA2000F096
:100EF00080F8122000F07DF8812000F07AF8CF20F1
:100F000000F077F8D92000F074F8F12000F071F8C3
:100F1000DB2000F06EF8302000F06BF8A42000F029
:100F200068F8A62000F065F88D2000F062F8142023
:100F300000F05FF8AF2000F05CF8BDE81040FFF76C
:100F40000EBF10B50C4640F0B00000F052F8102073
:100F500040EA141000F04DF804F00F00BDE8104016
:100F600000F047B82DE9F0410746CE004000083EAA
:100F7000801E15464FF0FF38F1B2C0B2FFF7E1FF17
:100F80001148002400EB05152819A0F5805090F8B1
:100F9000000E00F03FF8641CE4B2082CF4D308EB18
:100FA0004700F1B2C0B2FFF7CCFF00242819A0F52A
:100FB000805090F8080E00F02DF8641CE4B2082C64
:100FC000F4D3BDE8F0810000F81300082DE9F041EA
:100FD00015460E460746002406E03019C1B23846D1
:100FE000FFF7C0FF641CE4B22A5D002AF5D1BDE81A
:100FF000F08110B50446FFF721FF7820FFF7ECFEE3
:101000000020FFF7E9FE2046FFF7E6FEBDE81040AE
:10101000FFF730BF10B50446FFF710FF7820FFF749
:10102000DBFE4020FFF7D8FE2046FFF7D5FEBDE8E7
:101030001040FFF71FBF70477047FFF761BA30B528
:101040008FB028216846FFF7BFF814210AA8FFF7E0
:10105000BBF801210804CDE9001000240294022508
:101060000491CDE907504FF4E01009906846FFF76E
:10107000AFFB08B172B6FEE70F20CDE90A054FF4C9
:101080008060CDE90C4002210AA80E94FFF7D4FA43
:10109000002801D072B6FEE70FB030BD70470000E7
:1010A000F0B50268164B174C174D4FF08047984229
:1010B00005D0B84203D0A04201D0A84203D122F00B
:1010C00070064A683243984205D0B84203D0A04225
:1010D00001D0A84203D122F44074CA6822434C696B
:1010E00022F08002224302608A68C2620A68826239
:1010F000984201D10969016301214161F0BD0000FD
:10110000002C0140000400400008004010B501F030
:101110001F030121046A99408C430462016A9A40CA
:101120001143016210BD000030B5026A22F00102D5
:101130000262026A4368846924F073050C682C43D8
:1011400022F002058A682A430A4DA8420BD122F0F8
:101150000805CA6823F440732A434D6922F004024B
:101160001D438B692B43436084614968416302627C
:1011700030BD0000002C014030B5026A22F01002A0
:101180000262026A436884690D6824F4E64444EA12
:1011900005248D6822F0200242EA05120B4DA84278
:1011A0000ED1CD6822F0800242EA05124D6923F487
:1011B000406343EA85038D6922F0400243EA8503D8
:1011C0004360846149688163026230BD002C014044
:1011D00030B5026A22F480720262036A4268C4690E
:1011E00023F4007324F073050C682C438D6843EAE4
:1011F00005230C4DA8420ED1CD6823F4006343EAC9
:1012000005234D6922F4405242EA05128D6923F408
:10121000806342EA05124260C4614968C1630362A7
:1012200030BD0000002C014030B5026A22F480522B
:101230000262046A4268C3690D6823F4E64343EA24
:1012400005238D6824F4005444EA0534064DA84271
:1012500004D14D6922F4804242EA85124260C361A2
:1012600049680164046230BD002C0140FEE70907B3
:10127000090E002804DB00F1E02080F8001470471C
:1012800000F00F0000F1E02080F8141D704700000E
:101290000F4800B5816985B041F004018161806922
:1012A000694600F00400049008200090094801906D
:1012B000012002900848FFF723F8002201210920AD
:1012C000FFF788F90920FFF777F905B000BD0000A6
:1012D00000100240000031100008014010B50F4A14
:1012E00004464FF08040C2E900010020C2E9020438
:1012F0001046FFF774FC0948610848300422416039
:10130000602101600221816001464838FFF704FC3A
:10131000BDE8104004210148FFF7D0BC10000020B8
:10132000012204210148FFF7E0B800000008014055
:10133000002204210148FFF7D8B80000000801404E
:101340000F4810B5816986B041F004018161806960
:101350000C4C00F004000490042000900120019047
:10136000002002900220039069462046FEF7C8FF45
:10137000002204212046FFF7B8F806B010BD000097
:101380000010024000080140FFF7C2F8FFF757FEC7
:10139000FFF7D6FFFFF77CFFFFF784FD012110A2C6
:1013A0000846FFF713FE472140F2F310FFF796FFC0
:1013B00000240C4E01254FF49677641CA4B2BC4265
:1013C00006D9002504E0641E2404240C00D1012564
:1013D000306884630220FEF75CFF002DEDD1F2E758
:1013E000637768001000002000000000000000008B
:1013F00001020304060708090000000000000000C5
:101400000000000000000000000000F800000000E4
:10141000000000333000000000100C06100C060025
:10142000000000000000000040C07840C07840008C
:10143000043F04043F040400007088FC08300000EE
:10144000001820FF211E0000F008F000E018000046
:1014500000211C031E211E0000F0088870000000FF
:101460001E2123241927211010160E000000000051
:101470000000000000000000000000E0180402006E
:10148000000000071820400000020418E0000000DF
:101490000040201807000000404080F080404000DD
:1014A0000202010F01020200000000F00000000033
:1014B0000101011F01010100000000000000000007
:1014C00080B070000000000000000000000000007C
:1014D0000001010101010101000000000000000005
:1014E00000303000000000000000000080601804A0
:1014F000006018060100000000E010080810E0007D
:10150000000F102020100F00001010F80000000045
:101510000020203F2020000000700808088870008C
:10152000003028242221300000300888884830000C
:101530000018202020110E000000C02010F800002C
:1015400000070424243F240000F8088888080800C5
:101550000019212020110E0000E0108888180000DA
:10156000000F112020110E0000380808C8380800AC
:101570000000003F0000000000708808088870002C
:10158000001C222121221C0000E010080810E000AD
:101590000000312222110F00000000C0C000000036
:1015A000000000303000000000000080000000005B
:1015B0000000806000000000000080402010080053
:1015C000000102040810200040404040404040001C
:1015D00004040404040404000008102040800000F7
:1015E0000020100804020100007048080808F000FC
:1015F0000000003036010000C030C828E810E000CC
:101600000718272423140B000000C038E000000056
:10161000203C23020227382008F8888888700000C0
:10162000203F202020110E00C03008080808380094
:10163000071820202010080008F808080810E0000B
:10164000203F202020100F0008F88888E8081000AC
:10165000203F20202320180008F88888E808100080
:10166000203F200003000000C030080808380000B8
:1016700007182020221E020008F808000008F808B9
:10168000203F210101213F20000808F80808000040
:101690000020203F2020000000000808F808080073
:1016A000C08080807F00000008F888C028180800EB
:1016B000203F20012638200008F808000000000024
:1016C000203F20202020300008F8F800F8F808001B
:1016D000203F003F003F200008F830C00008F80815
:1016E000203F200007183F00E01008080810E00025
:1016F0000F10202020100F0008F808080808F0003C
:10170000203F210101010000E01008080810E0005E
:101710000F18242438504F0008F8888888887000F3
:10172000203F2000030C3020007088080808380093
:101730000038202121221C00180808F80808180089
:101740000000203F2000000008F808000008F8080A
:10175000001F202020201F000878880000C83808BB
:10176000000007380E010000F80800F80008F80033
:10177000033C0700073C03000818688080681808CD
:1017800020302C03032C30200838C800C83808004B
:101790000000203F2000000010080808C83808009A
:1017A0002038262120201800000000FE020202003E
:1017B0000000007F40404000000C30C000000000EE
:1017C000000000010638C00000020202FE00000016
:1017D000004040407F0000000000040202020400BC
:1017E00000000000000000000000000000000000F9
:1017F00080808080808080800002020400000000E1
:1018000000000000000000000000808080800000D8
:101810000019242222223F2008F8008080000000C6
:10182000003F112020110E00000000808080000089
:10183000000E112020201100000000808088F80098
:10184000000E112020103F200000808080800000CA
:10185000001F222222221300008080F0888888182E
:101860000020203F20200000000080808080800039
:10187000006B94949493600008F8008080800000CE
:10188000203F210000203F200080989800000000A9
:101890000020203F202000000000008098980000D9
:1018A00000C08080807F000008F8000080808000F9
:1018B000203F24022D302000000808F8000000001E
:1018C0000020203F202000008080808080808000D9
:1018D000203F20003F20003F80800080808000006B
:1018E000203F210000203F200000808080800000F9
:1018F000001F202020201F0080800080800000002A
:1019000080FFA12020110E00000000808080800058
:10191000000E112020A0FF80808080008080800049
:1019200020203F2120000100000080808080800076
:101930000033242424241900008080E080800000EB
:101940000000001F20200000808000000080800038
:10195000001F202020103F20808080000080808099
:1019600000010E3008060100808000800080808029
:101970000F300C030C300F0000808000808080004E
:101980000020312E0E312000808080000080808079
:1019900080818E7018060100008080808080800029
:1019A0000021302C2221300000000000807C020247
:1019B00000000000003F404000000000FF00000069
:1019C00000000000FF0000000002027C8000000018
:1019D0000040403F00000000000601010202040434
:1019E0000000000000000000081A000800000020AD
:1019F0001000000028010008181A0008100000203C
:101A0000C8060000440100080100000010000000AA
:081A1000000000000024F400B6
:04000005080000ED02
:00000001FF
