:020000040800F2
:1000000038070020A1010008E3210008DF210008D3
:10001000E12100085F120008DF270008000000004F
:100020000000000000000000000000001325000890
:1000300061120008000000001125000815250008C5
:10004000BB010008BB010008BB010008BB010008A0
:10005000BB010008BB010008BB010008BB01000890
:10006000BB01000867120008BB010008BB010008C3
:10007000BB010008BB010008BB010008BB01000870
:10008000BB010008BB010008BB010008BB01000860
:10009000BB010008BB010008BB010008BB01000850
:1000A000BB010008BB010008BB010008BB01000840
:1000B000BB01000879250008BB010008BB0100084E
:1000C000BB010008BB010008BB010008BB01000820
:1000D000BB010008BB010008BB010008BB01000810
:1000E000BB010008BB010008BB01000800F002F8DA
:1000F00000F047F80AA090E8000C82448344AAF17B
:100100000107DA4501D100F03CF8AFF2090EBAE878
:100110000F0013F0010F18BFFB1A43F0010318473B
:100120007446000094460000103A24BF78C878C195
:10013000FAD8520724BF30C830C144BF04680C60ED
:10014000704700000023002400250026103A28BF35
:1001500078C1FBD8520728BF30C148BF0B60704739
:10016000662903F0BE86002070471FB500F036FBFD
:1001700004000020002102F0F7FFE0601FBD10B571
:1001800010BD00F02FFC1146FFF7EFFF02F03AFF21
:1001900000F04DFC03B4FFF7F2FF03BC00F090FC4D
:1001A0000948804709480047FEE7FEE7FEE7FEE70B
:1001B000FEE7FEE7FEE7FEE7FEE7FEE70448054947
:1001C000054A064B7047000077250008ED0000083F
:1001D00038010020380700203803002038030020B1
:1001E0000FB41CB5074B06AA7B44694600900598DE
:1001F00000F0DBFA0020694600F0EAFA1CBC5DF86A
:1002000014FB0000E50500002DE9F0474FF0000A5F
:1002100089460446C0F820A02046E16888470028A7
:1002200076D0252806D0D4E901219047206A401CC9
:100230002062F1E7E168204600258847C4F81CA049
:1002400006460027C4F818A02A2E09D0304602F02E
:100250000BFE38B304EB8708303EC8F8186019E08D
:1002600059F8041B204604EB87029161E168884736
:10027000012F064618D1E069002820DA25F0200574
:100280001DE0D8F8180000EB800006EB4000303885
:10029000C8F818002046E1688847064602F0E4FDE9
:1002A0000028EED1012F0AD02E2E08D12046E16879
:1002B00088477F1C0646022F45F02005C4DBA06955
:1002C000002803DA404245F00105A061E80701D0AB
:1002D00025F01005B6B1A6F14100192802D8203644
:1002E00045F400654A463146204625604D46FFF7F5
:1002F00037FF58B1012806D0ED1D25F0070000F1A9
:10030000080989E704E005F1040985E730468AE732
:10031000206ABDE8F0874FF0000200B5134694460E
:100320009646203922BFA0E80C50A0E80C50B1F14D
:100330002001BFF4F7AF090728BFA0E80C5048BF61
:100340000CC05DF804EB890028BF40F8042B08BFFF
:10035000704748BF20F8022B11F0804F18BF00F8FB
:10036000012B704770477047704710B500F03AFA9C
:10037000006810BD10B5044600F034FA046010BDEA
:1003800070472DE9FF4F0C461E464FF0FF378BB0EC
:10039000D2E90001DDF860800A908A46C1F30A556F
:1003A00005B93D46002108464FF00000BAF1000FA4
:1003B00000F4400005DA00EB80004FF4400101EA50
:1003C00050004FEA9059B9F1010F00DDB9460A9883
:1003D00050EA4A000ED044F61050A5F2FF354543CE
:1003E0002F14B8F1000F1ED07542291E1EDDC9F171
:1003F00000021CE0B8F1010F4FF0000001D03021E5
:1004000003E0F24305E02154401CB042FBDB3046E0
:100410000022002121540B99C1F80880C1E9002075
:100420000FB0BDE8F08FBD1B6D1CDEE74A4600DA59
:10043000694206A800F060FA06AB93E8070003AB38
:1004400083E8070050460A9900F041FB8DE8070059
:10045000A0F500501F3800900398002D0ADD42F2ED
:100460001F014A460844002303A90390684600F090
:10047000AAFD09E0A0F500504A461F38002303A951
:100480000390684600F0B4FD8DE807000004000CFE
:1004900003D04FF0FF30410800E01046B8F1000FE4
:1004A00003D00022009215461EE0751E05D400F010
:1004B0009DF9303262556D1EF9D5B34601220843CD
:1004C00002D000227F1C04E02078302801D10022D5
:1004D0007F1E002A099784D01DE0112D07DA00F055
:1004E00085F9303262556D1C50EA0102F5D108439E
:1004F00002D00098C8B10EE00021681E05E0235C20
:10050000625C63542254401E491C8142F7DBAB46B7
:10051000A81B401E0990002004F80B000B98099AB4
:10052000C0F80880C0E9002B7AE711264FF00008D8
:1005300057E72DE9F04F88460446D21D22F0070107
:1005400091B0D1E90001CDE90A0102F049F9024672
:100550000B98C00F01D02D2007E02068810701D53E
:100560002B2002E0202101EAC000032A099001D0DB
:10057000072A05DB03464146204600F07DF90BE1E2
:100580002078800601D5E06900E00620B8F1650F0B
:10059000814606D0B8F1660F18D0B8F1670F70D158
:1005A00031E00020B9F1110F009001DB112301E0CF
:1005B00009F101030AAA01A90CA8FFF7E2FEDDE98F
:1005C0000C70002609F10105834647E001204B46E7
:1005D00000904FF000470AAA01A90CA8FFF7D1FE2E
:1005E000DDE90DB00C995D46002610B909F1010056
:1005F0000D18B9EB050003D4C0F1FF3609F1010570
:10060000A5EB09002BE0B9F1010F01DA4FF0010968
:100610000020B9F1110F0090484601DD112300E0E0
:1006200003460AAA01A90CA8FFF7ABFEDDE90C708E
:100630004D4600268346207800070AD4AB4500DAF1
:100640005D4601A8012D04DD411911F8011C302976
:1006500007D04F4502DA17F1040F04DA0120824671
:100660000FE06D1EEEE7002F02DCED1B3E4403E0C1
:10067000781CA84200DD7D1CB81B00F1010A4FF078
:1006800000472078000703D4AA4501DB4FF0FF3A6A
:100690000021B7F1004F0DF143088DF8431024D02D
:1006A00002202B23002F01DA7F422D230A21021E74
:1006B000A0F1010000DC5FB197FBF1FC97FBF1F2C8
:1006C00001FB1C7C17460CF1300C08F801CDEEE75D
:1006D000A8F1010003702188090501D5452100E03A
:1006E0006521A0F1010800F8011C09980FA9A1EBF0
:1006F0000807FF1D00B10120411901EBEA70A16953
:100700003844081A401EA0612078C00602D4204652
:10071000AFF30080099828B1D4E901219047206AFD
:10072000401C20622078C00622D52046AFF300800E
:100730001EE0002E04DBB34502DD01A8805D00E071
:100740003020D4E901219047206A401C2062761CA9
:10075000AAF101005FEA000A0AD100F03FF8C06880
:100760000168405CD4E901219047206A401C206266
:10077000281EA5F10105DCDC07E0D4E9012118F809
:10078000010B9047206A401C2062381EA7F1010728
:10079000F3DC2046AFF30080032011B041E60000F7
:1007A00001694A1C02610878704700B58FB0CDE935
:1007B00001310021059105497944CDE90310114625
:1007C0006846FFF721FD0FB000BD0000E5FFFFFF09
:1007D0000A6802F8010B0A60704700000048704781
:1007E000F800002000487047D800002030B5B0F174
:1007F0000A024FEA900E71F100034EEA817EB0EBDF
:100800000E0061EB91014FEA101E4EEA017E10EBE3
:100810000E0041EB11114FEA102E4EEA016E10EB63
:100820000E0041EB11214FEA104E4EEA014E10EB43
:100830000E0041EB1141401841F100014FEAD00098
:1008400040EA41704FEAD10110EB80054FEA810484
:1008500044EA907444EB01046D1944EB0404521B08
:10086000A3414FF0000348BF0A3200D530BD401C01
:1008700041F1000130BD00002DE9F0411F46044662
:1008800003260168072A01F4006004DB08B116A5FD
:1008900005E016A503E008B115A500E015A521F0B7
:1008A00010002060A069C01EA0610FB1401EA061B1
:1008B0002046AFF300804FB1D4E90121384690477C
:1008C000206A401C2062C01C206206E0206AFAE711
:1008D000D4E9012115F8010B9047761EF8D2204685
:1008E000AFF30080BDE8F0814E414E006E616E00B6
:1008F000494E4600696E66002DE9F047814616466E
:100900008AB0354878440DC88DE80D0032487844E7
:10091000801C03AC0DC884E80D0041F69B300844F0
:10092000372190FBF1F290FBF1F5A5F1800501FB79
:1009300012041B3C02D56442012000E00020DFF8D5
:1009400098A080460027FA44AAF1BE0A0EE0E0070C
:100950000AD03246684607EB470101230AEB8101C2
:1009600000F046FB8DE8070064107F1C002CEED1E0
:10097000194F7F44AE3F19E0E80715D007EB04108C
:100980000DF1180A90E80E008AE80E00C068F042E7
:1009900001D1981908903246012306A903A800F056
:1009A00027FB03AB83E807006D10641C002DE3D127
:1009B0004FF0010332466946B8F1000F03A802D098
:1009C00000F001FB01E000F013FBC9E90001C9F8E8
:1009D00008200AB0BDE8F087743E00000048704768
:1009E000D80000207546FFF7F9FFAE4605006946BE
:1009F000534620F00700854618B020B5FFF7DEFB10
:100A0000BDE820404FF000064FF000074FF000080F
:100A10004FF0000B21F00701AC46ACE8C009ACE890
:100A2000C009ACE8C009ACE8C0098D46704710B5F4
:100A30000446AFF300802046BDE81040FFF7AABB94
:100A40004FF0013C50F8042B51F8043B9A4221D15D
:100A5000A2EB0C03934313EACC1317D150F8042BE9
:100A600051F8043B9A4215D1A2EB0C03934313EACD
:100A7000CC130BD150F8042B51F8043B9A4209D106
:100A8000A2EB0C03934313EACC13DBD04FF000002E
:100A9000704700BFD01A01BAB1FA81F101F0180114
:100AA00022FA01F0CB40C1F12001DBB2C0B2C01A82
:100AB0002CFA01F3D11A914311EAC311E6D1704720
:100AC00001491820ABBEFEE72600020070475FEA2E
:100AD000400C08BF91F0000F4FEA8C234FEAC1226F
:100AE00043EA51514FEA1C5018BF00F5F0404FEA5D
:100AF000300018BF41F000415FEA6C5C00F02980D3
:100B0000BCF1FF3F08BF40F080407047130C06BFA8
:100B100012044FF0100C4FF0000C130E04BF120221
:100B20000CF1080C130F04BF12010CF1040C930F0D
:100B300004BF92000CF1020CD30F04BF52000CF161
:100B4000010C11464FF00002A0F11F00A0EB0C00B9
:100B5000704711F0004F08BF704731F000413FF47B
:100B6000D5AF0B0C06BF09044FF0100C4FF0000C72
:100B70000B0E04BF09020CF1080C0B0F04BF090196
:100B80000CF1040C8B0F04BF89000CF1020CCB0F8D
:100B900004BF49000CF1010CCCF12003A0EB0C00C8
:100BA00022FA03F302FA0CF241EA030100F1010018
:100BB000704720F07F4C80EA030023F07F47ACEBC6
:100BC000070303F57C5300F0004003F1FF032DE918
:100BD00080494FEA154B09B44FEA144325EA0B4EFE
:100BE00024EA03480FF2042606EB132749083E784F
:100BF0005FEA320203FB0667C7F5000707FB06F64C
:100C00004FEA54374FEAD64606F1020607FB066C58
:100C1000CCF1005C4FEA1C472CEA074C07FB06F4BA
:100C20000CFB06F504EB15464FEA961634BF002080
:100C30004FF000404FEAD13706FB07FC4FEA1C4C4F
:100C40000CFB0BF7D21B03FB0CF761EB07010CFB52
:100C50000EF7B0EB074072EB17420CFB08F734BFFE
:100C6000A2EB0742B2EB074261EB17414FEA0C449B
:100C70004FEA910706FB07FC4FEA1C4C0CFB0BF7F5
:100C8000B0EBC74072EB573203FB0CF734BFA2EB5B
:100C9000C742B2EBC74261EB57310CFB0EF7B0EB2A
:100CA000C70072EB57720CFB08F734BFA2EBC70208
:100CB000B2EBC70261EB5771039F4FEA816141EAD2
:100CC000921104EBCC044FEAD1374FEA826206FB63
:100CD00007FC42EA90124FEA80604FEA1C4C0CFB82
:100CE0000BF7D21B03FB0CF761EB07010CFB0EF7B4
:100CF000B0EB074072EB17420CFB08F734BFA2EBD6
:100D00000742B2EB074261EB17414FEA8C554FEABD
:100D1000910704EB9C2406FB07FC4FEA1C4C0CFBE0
:100D20000BF7B0EBC74072EB573203FB0CF734BF45
:100D3000A2EBC742B2EBC74261EB57310CFB0EF797
:100D4000B0EBC70072EB57720CFB08F734BFA2EB95
:100D5000C702B2EBC70261EB577115EB4C254FEAA6
:100D6000816141EA92114FEA82624FEAD13742EA49
:100D7000901206FB07FC44F100044FEA80604FEA42
:100D80001C4C0CFB0BF7D21B03FB0CF761EB0701B0
:100D90000CFB0EF7B0EB074072EB17420CFB08F7A9
:100DA00034BFA2EB0742B2EB074261EB174115EBF0
:100DB0001C154FEA813141EA92414FEA823242EA00
:100DC00090424FEA80304FEA0C7644F1000448EA42
:100DD00003434EEA0B484FF0000EB2EB080C71EBE8
:100DE000030724BF624639464EEB0E0E4FF0000B50
:100DF0000018524149414BEB0B0BB2EB080C71EB65
:100E000003077BF1000B24BF624639464EEB0E0E02
:100E10004FF0000B0018524149414BEB0B0BB2EB6A
:100E2000080C71EB03077BF1000B24BF62463946C7
:100E30004EEB0E0E51EA020718BF46F0010616EB04
:100E40000E7655F1000254F1000103D5BDE8890189
:100E5000BDE80088BDE88901BDE80048B6195241E7
:100E600041EB0101A3F10103704780807F7E7D7C0F
:100E70007B7A7978777676757473727171706F6E2C
:100E80006E6D6C6C6B6A6A696868676666656464D7
:100E9000636362616160605F5F5E5E5D5D5C5C5B61
:100EA0005B5A5A59595858575756565555555454D0
:100EB000535352525251515050504F4F4F4E4E4D2E
:100EC0004D4D4C4C4C4B4B4B4A4A4A49494948487A
:100ED00048474747474646464545454444444443BA
:100EE00043434342424242414141002B9C4630D45D
:100EF00077002BD01CB54FEA370703B44FF0100032
:100F00004FF01001BAF1000F06D0BCF1000FDCBFAA
:100F100040F0080040F008014FF000000FBCBDE8B1
:100F200010400BF1010BBBF1010F08BF5FEA17077F
:100F300022BF12F1010211F101014FF0004143F112
:100F4000000300F0004043EA00007047F9D357085F
:100F5000D0E746EA064613F1400F4FEA16461FDD7A
:100F600013F1200FDFBF16430A46002120335B42F6
:100F7000BED0C3F1200746EA064602FA07F74FEA59
:100F8000164646EA0706C3F1200722FA03F201FAE1
:100F900007F721FA03F14FF0000342EA0702A7E73F
:100FA00046EA020646EA06464FEA164646EA0106C1
:100FB000BCBF46EA0646360C4FF000034FF0000275
:100FC0004FF0000194E72DE9804C9A46934670B4A7
:100FD00091E8380007C831EA400C48BF34EA430CB6
:100FE00003D5FFF7E6FDFFF780FFF0BCBDE8008CFE
:100FF0002DE9804C9A46934670B491E8380007C8B2
:1010000010F0804F08BF13F0804F03D100F005F8B7
:10101000FFF76BFFF0BCBDE8008C20F07F4780EA53
:10102000030023F07F4C07EB0C03A3F57C5300F087
:101030000040A3F1FE0392F0000F00F0B38095F0A2
:10104000000F00F077802DE901494FEA11404FEA87
:10105000144621EA004800FB06FC24EA064708FB88
:1010600006F607FB08F800FB07F718EB06484CEB01
:10107000164C4FEA124B18EB07484FEA15464CEB5B
:10108000174022EA0B4E0BFB06FC25EA06470EFB37
:1010900006F607FB0EFE0BFB07F71EEB064E4CEBAE
:1010A000164C4FF000061EEB074E4CEB174B18EB9F
:1010B0000B0840F1000018EB0E0B58EB000840F154
:1010C00000008F1A4FF000013CBFC943661B14BFDC
:1010D000B5EB040C00213CBFC943F61B4FEA174493
:1010E0004EEA8E0E27EA04454FEA1C4704FB0762CE
:1010F0002CEA074C05FB07F70CFB05F604FB0CFC80
:1011000016EB074642EB174216EB0C4642EB1C422D
:101110001BEB060658EB0202414146EA9E0601D54A
:10112000BDE80189B619524141EB0101A3F1010368
:10113000BDE801894FEA14454FEA114724EA054604
:1011400021EA074C05FB07F406FB07F70CFB06F149
:1011500005FB0CFC11EB074144EB17444FEA124727
:1011600011EB0C4144EB1C4422EA074C05FB07F24F
:1011700006FB07F70CFB06F605FB0CFC16EB074617
:1011800042EB174216EB0C4642EB1C456A1854F131
:10119000000148BF7047B619524141EB0101A3F16C
:1011A0000103704795F0000F37D04FEA11424FEA24
:1011B000144721EA024624EA074C02FB07F106FB2A
:1011C00007F70CFB06F402FB0CFC14EB074441EBA5
:1011D00017414FEA154714EB0C4441EB1C4125EA3B
:1011E000074C02FB07F506FB07F70CFB06F602FBB4
:1011F0000CFC16EB074645EB174516EB0C4645EB8A
:101200001C42121951F1000148BF7047B6195241F2
:1012100041EB0101A3F1010370474FEA14454FEA86
:10122000114724EA054621EA074C05FB07F106FBB6
:1012300007F70CFB06F24FF0000605FB0CFC12EB67
:10124000074241EB174112EB0C4251EB1C4148BFE6
:101250007047921841EB0101A3F101037047FEE7CB
:10126000704700F003B8082000F026B870B50446B7
:1012700000F028F90546601C02D0044800780444B8
:1012800000F020F9401BA042FAD370BD00000020FE
:1012900010B508280CD10821064800F009F918B14A
:1012A000BDE8104001F082BEBDE8104001F076BEFE
:1012B00010BD000000080140044910B50A68024250
:1012C00002D00860FFF7E4FF10BD000014040140E5
:1012D0002DE9F84FDFF8B891002409F1040A0AF16A
:1012E000040B23460F270BF1040EC9E00125A5408E
:1012F0002A40AA427DD1674ED1F804C0ACEB060863
:10130000B44532D014DCBCF1030F3AD009DCBCF197
:10131000000F2AD0BCF1010F1CD0BCF1020F31D15B
:101320001DE0BCF1110F17D0BCF1120F2AD119E04A
:10133000B8F5881F19D006DCB8F5803F15D0B8F590
:10134000801F1FD111E0B8F5001F0ED0B8F5041FA3
:1013500018D10AE0CB6815E0CB681B1D12E0CB6802
:1013600008330FE0CB680C330CE08B682BB1012BFA
:101370004FF0080303D0456104E0042302E0056157
:1013800000E00023FF2A01D8064601E000F1040630
:101390004FEA840501D9A5F12005D6F8008007FAA7
:1013A00005FC28EA0C0803FA05F548EA0508C6F822
:1013B00000804D68ED0062D5374DAE6946F00106FC
:1013C000AE61AD6924F0030605F001050095334DCB
:1013D00006EB050CDCF80850A607360F07FA06F8EE
:1013E00025EA0805DFF8B880404503D14FF0000832
:1013F00017E044E0DFF8AC80404502D14FF001082F
:101400000FE0DFF8A480404502D14FF0020808E069
:10141000DFF89880404502D14FF0030801E04FF01B
:10142000040808FA06F848EA0508CCF808804D6870
:10143000D9F80060ED034D4601D5164300E0964310
:101440002E604D68DAF80060AD03554601D51643AD
:1014500000E096432E604D68DBF80060ED025D46CB
:1014600001D5164300E096432E604D68DEF800601B
:10147000AD02754601D5164300E096432E60641C0C
:101480000D682A46E5407FF431AFBDE8F88F0000D3
:101490000004014000001110001002400000014053
:1014A00000080140000C0140001001400014014000
:1014B0008068084000D0012070470AB10161704780
:1014C0000904FBE701488068704700000000002025
:1014D0000248816802781144816070470000002052
:1014E000074810B5016841F010010160032000F0C9
:1014F00079F80F2000F006F800F024F8002010BD65
:101500000020024070B50D4D04464FF47A712878E2
:10151000B1FBF0F00A490968B1FBF0F000F0E0FA25
:1015200048B9102C07D200222146501E00F03AF88C
:1015300000206C6070BD012070BD00000000002024
:101540000C0000200E4808B5816941F0010181615D
:10155000816901F001010091C16941F08051C161CF
:10156000C06900F080500090052000F03BF805486D
:10157000416821F0E06141F00071416008BD000068
:101580000010024000000140002809DB00F01F02AB
:10159000012191404009800000F1E020C0F80011D5
:1015A00070470000F0B40E4B1B680C46C3F30223D7
:1015B000C3F10705042D00D90425191D072901D2FF
:1015C000002300E0DB1E012606FA05F1491E21403A
:1015D00099409E40761E16403143F0BC01F014B98C
:1015E0000CED00E0064900F0070208684FF6FF0323
:1015F000184040EA0220034A104308607047000088
:101600000CED00E00000FA052DE9F0470F4605005B
:1016100061D0434E306800F00700B84209D230680C
:1016200020F0070038433060306800F00700B8420F
:1016300051D128683B4C810712D5400703D560681B
:1016400040F4E06060602878000703D5606840F4EB
:10165000605060606068A96820F0F0000843606036
:101660002878C00728D06868012810D0216802288F
:1016700010D0890700292EDA616821F003010143A7
:101680006160FFF71FFF804641F288390DE0216855
:101690008903EFE78901EDE7FFF714FFA0EB0801ED
:1016A000494502D90320BDE8F0876068696800F009
:1016B0000C00B0EB810FEFD1306800F00700B842AA
:1016C0000BD9306820F0070038433060306800F0F4
:1016D0000700B84201D00120E5E72878400705D58A
:1016E0006068E96820F4E0600843606028780007DB
:1016F00006D56068296920F4605040EAC100606046
:1017000000F028F86168084AC1F30311515CC84031
:101710000649086006480068FFF7F4FE0020C2E7AB
:101720000020024000100240D63F00080C000020BC
:10173000040000200448054900684968044AC1F3D0
:101740000221515CC84070470C000020001002408C
:10175000E63F000812A185B00FC98DE80F0014A064
:10176000144A006804905168134801F00C03042BDC
:1017700010D0082B0ED1C1F38343C9031DF8030019
:101780000AD5516804AAC1F34041515C0A4A50434A
:10179000B0FBF1F005B0704708494843FAE7000094
:1017A00002030405060708090A0B0C0D0E0F1010A2
:1017B000010200000010024000127A0000093D0002
:1017C0002DE9F84F040070D02078C04DC00749D0F3
:1017D0006868C0F38100012807D06868C0F3810001
:1017E000022809D16868C00306D52868800339D566
:1017F00060680028E7D035E06068B0F5803F0BD026
:1018000010B1B0F5A02F11D0286820F480302860E6
:10181000286820F4802002E0286840F480302860A6
:10182000606890B1FFF74EFE06460AE0286840F473
:1018300080202860F0E700BFFFF744FE801B64288B
:1018400073D828688003F7D50CE0FFF73BFE064607
:1018500005E000BFFFF736FE801B6428F0D828683B
:101860008003F7D420789A4E80074FF001094FF09B
:10187000000839D5686810F00C0F07D06868C0F30D
:101880008100022809D16868C00306D4286880074F
:1018900014D52069012808D110E02069B0B1C6F83C
:1018A0000090FFF70FFE074605E00AE1FFF70AFE8A
:1018B000C01B0228C4D828688007F7D5286861694A
:1018C00020F0F80040EAC10028600DE0C6F8008072
:1018D000FFF7F8FD074604E0FFF7F4FDC01B022800
:1018E00023D828688007F7D4207800072CD57948BA
:1018F000A169D9B1C0F80090FFF7E4FD074604E004
:10190000FFF7E0FDC01B02280FD8686A8007F7D5F3
:1019100071484FF4FA510068B0FBF1F0009000BF3D
:101920000098411E0091FAD20EE080E0C0F80080DD
:10193000FFF7C8FD074604E0FFF7C4FDC01B0228FF
:1019400075D8686A8007F7D42078400760D5E869C1
:101950000027C00008D4E86940F08050E861E869D9
:10196000012700F0805000905C480168C90513D43D
:101970000168834641F480710160FFF7A3FD824650
:1019800006E000BFFFF79EFDA0EB0A0064284ED8DA
:10199000DBF80000C005F5D5E06801280AD008B1E1
:1019A000052813D0286A20F001002862286A20F058
:1019B000040002E0286A40F001002862E06841F279
:1019C000883B98B1FFF77EFD82460BE0286A40F025
:1019D00004002862EEE700BFFFF774FDA0EB0A01E8
:1019E00059455AD8286A8007F6D50CE0FFF76AFDFA
:1019F000824605E0FFF766FDA0EB0A0159454CD889
:101A0000286A8007F6D41FB1E86920F08050E861A9
:101A1000E06988B36968C1F38101022944D00228D2
:101A2000C6F8608004D0FFF74DFD044638E034E08E
:101A3000FFF748FD074604E0FFF744FDC01B0228FE
:101A40002BD828688001F7D4206AB0F5803F05D1F3
:101A50006868A16820F4003008436860D4E9080190
:101A60000843696821F4741108436860C6F86090FF
:101A7000FFF728FD044606E025E000BFFFF722FD42
:101A8000001B022809D828688001F7D51BE000BF99
:101A9000FFF718FD001B022802D90320BDE8F88FCC
:101AA00028688001F4D40EE00128F7D06868226A23
:101AB00000F48031914204D1616A00F470108842D0
:101AC00001D00120EAE70020E8E700000010024012
:101AD00000004242800442420C000020007000409E
:101AE00010B5401EB0F1807F01D3012010BD4FF032
:101AF000E02460610F21601700F086FE0020A061E5
:101B000007202061002010BD704770472DE9F0418B
:101B100000682649884240D1254C207800063CD4F4
:101B200020784FF000014006224838D500F041FBF4
:101B3000E080E088A1881F4D884203D3E088A18817
:101B4000401A05E0A889A188401AE1880844401C91
:101B50006080FFF7EFFD4600608802F0EFF807466F
:101B60006868401C02F0EAF80546304602F0E6F8E4
:101B7000294602F021F8394602F01EF8A06062887A
:101B800005230121032000F06DFC207840F0800047
:101B90002070207820F040002070BDE8F08100F037
:101BA00008FBA080207840F04000F5E700040040EA
:101BB00010000020800000202DE9F041054690F83B
:101BC0003C000C46012836D0012085F83C008AB341
:101BD000042A42D02868082A51D0D4E90023E168B9
:101BE000066A26F480560662C669076A26F44076BD
:101BF00046EA03234FF6FF7606EA013123F47043E9
:101C000019434FF4005627F4005306EA02321A43F0
:101C1000C16102622868C16921F44061C16128681C
:101C2000C169A26841EA0221C161002085F83C0037
:101C3000BDE8F08101E00220FAE7D4E90012E36890
:101C4000286800F085FD2868816921F00C01816118
:101C500028688169A26811430FE0D4E90012E368A3
:101C6000286800F0A1FD2868816921F44061816144
:101C700028688169A26841EA02218161D5E7D4E937
:101C80000027267B016A21F480710162C169036A21
:101C900021F00301394321F0F00731074FF40076BA
:101CA00047EA116123F4007306EA02221A43C16174
:101CB00002622868C16921F00C01C1612868C1690C
:101CC000A2681143B0E710B5040003D094F83D00BA
:101CD00010B107E0012010BD002084F83C00204630
:101CE00000F01EF8022084F83D00211D206800F05D
:101CF00049FC012084F8460084F83E0084F83F0047
:101D000084F8400084F8410084F8420084F84300DD
:101D100084F8440084F8450084F83D00002010BD9C
:101D20007047000010B5044651B104290DD00829B0
:101D300010D094F8410094F84520012811D10EE00C
:101D400094F83E0094F84220F7E794F83F0094F8A6
:101D50004320F2E794F8400094F84420EDE7012A8C
:101D600001D0012010BD022051B1042911D0082951
:101D700018D084F8410084F845000C291BD136E0C6
:101D800084F83E0084F842002068C26842F00202F3
:101D900010E084F83F0084F843002068C26842F0F5
:101DA000040207E084F8400084F844002068C26818
:101DB00042F00802C2600122206800F019FC0E49BE
:101DC0002068884208D0B0F1804F05D00B49884286
:101DD00002D00B49884204D1816801F0070106292D
:101DE00003D0016841F001010160002010BD2068AE
:101DF000C26842F01002DDE7002C01400004004000
:101E00000008004070B50446006801694FF0000505
:101E1000C943890715D4C168C943890711D4E91E8C
:101E2000016101202077206880698007204602D068
:101E3000FFF76CFE04E000F098F8204600F068F927
:101E4000257720680169C943490717D4C168C94388
:101E5000490713D46FF00401016102202077206844
:101E6000806910F4407F204602D0FFF74FFE04E067
:101E700000F07BF8204600F04BF9257720680169D7
:101E8000C943090716D4C168C943090712D46FF0C2
:101E900008010161042020772068C069800720467E
:101EA00002D0FFF733FE04E000F05FF8204600F0B8
:101EB0002FF9257720680169C943C90617D4C1687D
:101EC000C943C90613D46FF01001016108202077BF
:101ED0002068C06910F4407F204602D0FFF716FE4C
:101EE00004E000F042F8204600F012F9257720685F
:101EF0000169C943C90708D1C168C943C90704D1E9
:101F0000891E0161204600F053F920680169C94328
:101F1000090609D4C168C943090605D46FF08001D8
:101F200001612046FFF7F0FD20680169C9434906B9
:101F300009D4C168C943490605D46FF04001016165
:101F4000204600F04BF920680169C94389060BD48B
:101F5000C168C943890607D46FF02001016120469A
:101F6000BDE87040FFF7D1BD70BD704770B5044645
:101F700090F83C000D4601280AD0012084F83C006E
:101F800042B1042A18D0082A2AD00C2A4DD139E0AF
:101F9000022070BD206800F039FB2068816941F0A3
:101FA000080181612068816921F004018161206854
:101FB00081692A69114311E0206800F04FFB206815
:101FC000816941F4006181612068816921F4806147
:101FD0008161206881692A6941EA0221816124E0E6
:101FE000206800F067FB2068C16941F00801C16109
:101FF0002068C16921F00401C1612068C1692A69B2
:10200000114311E0206800F081FB2068C16941F4B0
:102010000061C1612068C16921F48061C1612068EB
:10202000C1692A6941EA0221C161002084F83C00AB
:1020300070BD10B5040003D094F83D0010B107E066
:10204000012010BD002084F83C00204600F01EF85E
:10205000022084F83D00211D206800F093FA012041
:1020600084F8460084F83E0084F83F0084F840007D
:1020700084F8410084F8420084F8430084F8440066
:1020800084F8450084F83D00002010BD00B50068CC
:1020900085B0B0F1804F33D11A48C16941F00101D8
:1020A000C161C16901F001010491816941F0080138
:1020B0008161816901F008010491816941F00101A8
:1020C00081618069694600F0010004900820009059
:1020D0000220019001200290032003900A48FFF79C
:1020E000F7F80A48416821F0E06141F00071416071
:1020F000416821F4407141F0E06141F48071416038
:1021000005B000BD00100240000C0140000001407D
:102110007047000010B50446022249B104290ED0D0
:10212000082913D094F84100012816D0012010BDD1
:1021300094F83E000128F9D184F83E200FE094F88D
:102140003F000128F2D184F83F2008E094F84000D5
:102150000128EBD184F8402001E084F841200122DD
:10216000206800F045FA0F492068884203D1426C8C
:1021700042F4004242642068884208D0B0F1804FA7
:1021800005D00949884202D00849884204D18168B3
:1021900001F00701062903D0016841F00101016047
:1021A000002010BD002C0140000400400008004049
:1021B00070470246002041B1042909D008290AD0FD
:1021C0000C2901D11068006C70471068406B704793
:1021D0001068806B70471068C06B70477047FEE7EF
:1021E000FEE7FEE770B500240021204600F0F4F879
:1021F0000025002000F07BF96D1CEDB2802DF8D396
:10220000641CE4B2082CEFD370BD000010B586B09A
:10221000002002901048816941F0080181618069C5
:102220000E4C00F0080004904FF440700090112014
:1022300001900320039069462046FFF749F80122E8
:1022400011022046FFF739F9012251022046FFF71B
:1022500034F906B010BD000000100240000C01402F
:102260002DE9F047164E002407464FF080084FF442
:102270000079B51528FA04F0384201D0012200E0B7
:10228000002249463046FFF718F901222946304618
:10229000FFF713F9002229463046FFF70EF9641CB8
:1022A000E4B2082CE6D3012229463046FFF705F9AF
:1022B00029463046BDE8F0470022FFF7FEB800008F
:1022C000000C014070B501220B4D540221462846F6
:1022D000FFF7F3F80122160231462846FFF7EDF822
:1022E000002221462846FFF7E8F831462846BDE897
:1022F00070400022FFF7E1B8000C014070B50A4DB4
:102300004FF40074002221462846FFF7D6F8012238
:1023100011022846FFF7D1F821462846BDE8704053
:102320000122FFF7CAB80000000C014010B564207C
:10233000FEF79CFFFFF76AFFAE2000F0C7F8D5203C
:1023400000F0C4F8802000F0C1F8A82000F0BEF82A
:102350003F2000F0BBF8D32000F0B8F8002000F0D8
:10236000B5F8402000F0B2F8A12000F0AFF8C82086
:1023700000F0ACF8DA2000F0A9F8122000F0A6F87E
:10238000812000F0A3F8CF2000F0A0F8D92000F0C1
:102390009DF8F12000F09AF8DB2000F097F830204B
:1023A00000F094F8A42000F091F8A62000F08EF838
:1023B0008D2000F08BF8142000F088F8AF2000F09A
:1023C00085F8BDE81040FFF70DBF0246012000E090
:1023D0005043491EFCD2704710B50C4640F0B00087
:1023E00000F074F8102040EA141000F06FF804F0C8
:1023F0000F00BDE8104000F069B800002DE9F04181
:102400000746CE004000083E801E15464FF0FF38BC
:10241000F1B2C0B2FFF7E0FF1148002400EB051550
:102420002819A0F5805090F8000E00F060F8641CA8
:10243000E4B2082CF4D308EB4700F1B2C0B2FFF7C6
:10244000CBFF00242819A0F5805090F8080E00F06A
:102450004EF8641CE4B2082CF4D3BDE8F08100000F
:10246000EE3F00082DE9F04700241D461646884639
:1024700081460A2713E0291B0A20491EFFF7A5FF02
:10248000B6FBF0F0B0FBF7F107FB110208EB04001C
:10249000C1B248463032FFF7B1FF641CE4B2AC422F
:1024A000E9D3BDE8F0872DE9F04115460E46074611
:1024B000002406E03019C1B23846FFF79FFF641CC4
:1024C000E4B22A5D002AF5D1BDE8F08110B50446DA
:1024D000FFF7F8FE7820FFF7C3FE0020FFF7C0FEED
:1024E0002046FFF7BDFEBDE81040FFF707BF10B55F
:1024F0000446FFF7E7FE7820FFF7B2FE4020FFF723
:10250000AFFE2046FFF7ACFEBDE81040FFF7F6BE79
:1025100070477047FEF7DCBF30B58FB028216846A2
:10252000FDF7F9FE14210AA8FDF7F5FE01210804C4
:10253000CDE900100024029402250491CDE9075052
:102540004FF4E01009906846FFF73AF908B172B607
:10255000FEE70F20CDE90A054FF48060CDE90C407D
:1025600002210AA80E94FFF74FF8002801D072B696
:10257000FEE70FB030BD70470148FFF743BC0000D5
:1025800080000020F0B50268164B174C174D4FF035
:102590008047984205D0B84203D0A04201D0A8425B
:1025A00003D122F070064A683243984205D0B842FF
:1025B00003D0A04201D0A84203D122F44074CA68DB
:1025C00022434C6922F08002224302608A68C26280
:1025D0000A688262984201D109690163012141615F
:1025E000F0BD0000002C0140000400400008004045
:1025F00010B501F01F030121046A99408C43046265
:10260000016A9A401143016210BD000030B5026AB0
:1026100022F001020262026A4368846924F07305B1
:102620000C682C4322F002058A682A430A4DA8420E
:102630000BD122F00805CA6823F440732A434D6980
:1026400022F004021D438B692B4343608461496877
:102650004163026230BD0000002C014030B5026AC7
:1026600022F010020262026A436884690D6824F451
:10267000E64444EA05248D6822F0200242EA05126D
:102680000B4DA8420ED1CD6822F0800242EA05121D
:102690004D6923F4406343EA85038D6922F04002CB
:1026A00043EA85034360846149688163026230BD07
:1026B000002C014030B5026A22F480720262036A83
:1026C0004268C46923F4007324F073050C682C433A
:1026D0008D6843EA05230C4DA8420ED1CD6823F442
:1026E000006343EA05234D6922F4405242EA051291
:1026F0008D6923F4806342EA05124260C46149682F
:10270000C163036230BD0000002C014030B5026A95
:1027100022F480520262046A4268C3690D6823F49D
:10272000E64343EA05238D6824F4005444EA053463
:10273000064DA84204D14D6922F4804242EA851236
:102740004260C36149680164046230BD002C0140ED
:1027500070B5046A24F0010404628469056A0F4EAE
:10276000B04208D0B0F1804F05D00D4EB04202D03B
:102770000C4EB04203D124F00304144301E044F0B2
:1027800001041A0724F0F00444EA126225F00A0357
:1027900001F00A0119438261016270BD002C014001
:1027A000000400400008004030B5046A24F0100422
:1027B00004628469056A24F4407444EA022222F423
:1027C00070444FF6FF7202EA03322243A02425F040
:1027D000A00304EA011119438261016230BDFEE7E2
:1027E000490050EAC12018BF04204A0D18BF40F02C
:1027F000010040F2FF72B2EB515F08BF40F00200EF
:10280000012808BF052070470907090E002804DBCE
:1028100000F1E02080F80014704700F00F0000F194
:10282000E02080F8141D70472DE9F74F144694B04E
:102830000021C4E902111599079121F00045C94909
:102840008D4206DC1599C4E9000117B00020BDE8EF
:10285000F08FC549DFF814A3A9423CDD0799C44EA7
:102860000029C44FC44A1599534619DD01F02CF8CC
:10287000554506D0C14AC24B01F026F8C4E9000113
:102880000AE04FF0D352BE4B01F01EF832463B46F1
:1028900001F01AF8C4E9000117B00120BDE8F08F7B
:1028A00000F078FC554506D0B44AB54B00F072FCF8
:1028B000C4E900010AE04FF0D352B14B00F06AFCCA
:1028C00032463B4600F066FCC4E9000117B04FF009
:1028D000FF30BDE8F08FAB49A942159978DB21F0B4
:1028E000004183468846A84AA84B00F0E3FE002238
:1028F000A74B00F04FFC00F055FE099000F0AFFE32
:1029000006460F469C4A534600F0D4FE43465A46BC
:1029100000F0CEFF80468A46984A994B30463946A9
:1029200000F0C8FE2A0D01250B924246534600F0E6
:10293000BFFF032DC4E9000139D00B98C1F30A5140
:10294000401A05EB45111139814230DA9148C346EE
:10295000784400EB0510CDF80CA00C90D0E90023D2
:102960003046394600F0A6FE02460B46049106901A
:102970005846039900F0A8FF80468A4602460B4657
:102980005846039900F0A0FF049B069A00F09CFFB4
:1029900083460C9803913946D0E90223304600F073
:1029A00089FE5A46039B00F08FFF6D1CBDE7079818
:1029B0000028A2BF099817B0BDE8F08F616881F0C8
:1029C00000416160099817B04042BDE8F08FFFE711
:1029D00084461598C1F31301C0F30A50A0F2F530F4
:1029E0004FEA601800F01F06C6F120001390002087
:1029F0000690079041F4801E05206D4676B1664A28
:102A000008EB00017A4452F8213002EB8101B34017
:102A10004A68139922FA01F1194305E05F4908EB6E
:102A20000002794451F82210A1FB0E27A1FB0C13E0
:102A30001A449A4234BF0123002303EB070A05EB33
:102A40008003D3E901B70F448F4234BF0121002135
:102A500093448B4411B1934502D903E0934501D2CD
:102A6000012100E00021C3E901B7514445F82010DD
:102A7000011EA0F10100C1DC0298059F00F1005089
:102A8000800F12900298DDE90356800000F0E7FD08
:102A9000834628460D9100F0F9FD6FF01D0201F00C
:102AA00054FACDE90E01304600F0F0FD6FF03D0222
:102AB00001F04BFA80468A46384600F0E7FD6FF099
:102AC0005D0201F042FA074642465346119100F07A
:102AD00061FBDDE90E2300F05DFB5A460D9B00F023
:102AE00059FB00250E465A4628460D9B00F0ECFE89
:102AF000DDE90E2300F0E8FE4246534600F0E4FE16
:102B00003A46119B00F0D4FEDFF898A0244A5346C1
:102B100000F0D0FD07468846234A244B314628461C
:102B200000F0C8FD3A46434600F034FB07468846AD
:102B30004FF0A84253463146284600F0BBFD3A46C6
:102B4000434600F027FB159A12F0004F04D0129A6A
:102B500081F0004152421292C4E90001129817B06C
:102B6000BDE8F08FFB21E93F7CD90240FB21F93F12
:102B70007370032E8A19A33B000040543163621A1C
:102B800061B4D03DFB21394183C8C96D305FE43F5A
:102B90000000E03FBC1C0000381C00001A1C0000B4
:102BA000182D4454FB21F93D3326A611460B113C48
:102BB0002DE9FF4D21F0004807460C46B8F1795F3A
:102BC00008DA00F0EFFC002801BF0020324904B011
:102BD000BDE8F08D3A4623461046194600F06AFDDE
:102BE000054602462D480E460B460621784400F065
:102BF0005DF82A46334600F05DFDDDE9022382469A
:102C00008B463846214600F055FD04460F46524695
:102C10005B462846314600F04DFD22463B4600F01B
:102C200053FE07468A464FF0FF322846314601F0F0
:102C30008CF91B4A90450ADA3A46534600F044FEA6
:102C400004B00022BDE8F04D134B00F031BE154A30
:102C50004245A8BFA8F500154FF00004B8BF124DBB
:102C600022462B4600F030FE0646884622462B467A
:102C70000020094900F028FE04460D463A46534616
:102C80003046414600F020FE04B022462B46BDE807
:102C9000F04D00F00DBE00000000F03FF019000004
:102CA0003333D33F0000E93F0000D23F2DE9F0412C
:102CB0004F1E00EBC7010446D1E9000115461E4630
:102CC00037F006020DD02A46334600F0F3FC7F1E93
:102CD00004EBC703D3E9002300F05CFA37F00602E7
:102CE000F1D1022F25D0042F13D0062F18BFBDE835
:102CF000F0812A46334600F0DDFCD4E90A2300F0D7
:102D000049FA2A46334600F0D5FCD4E9082300F0FE
:102D100041FA2A46334600F0CDFCD4E9062300F000
:102D200039FA2A46334600F0C5FCD4E9042300F002
:102D300031FA2A46334600F0BDFCD4E9022300F004
:102D400029FA2A46334600F0B5FCD4E90023BDE851
:102D5000F04100F01FBA00002DE9FF4D054621F0BB
:102D6000004084B00C46B0F1795F0BDA2846FFF7DB
:102D700037FD042808BF00F06FF8284608B0214648
:102D8000BDE8F08D2A460B46104600F093FC06463F
:102D90000F462A46234600F08DFC804626488A4688
:102DA00032463B4605217844FFF780FF8346109862
:102DB000029160B3214A224B4046514600F07AFC12
:102DC000CDE900015A4640465146029B00F072FC94
:102DD00082468846DDE906014FF0FF3201F0B5F882
:102DE0005246434600F070FD32463B4600F062FC1E
:102DF000DDE9062300F068FDDDE9002300F064FD55
:102E000008B02A462346BDE8F04D00F051BD0B4600
:102E10005A463046394600F04DFC084A084B00F04F
:102E2000B9F94246534600F045FC08B02A4623460D
:102E3000BDE8F04D00F0AEB92E19000049555555CA
:102E40005555C5BF012201F080B800221346104637
:102E5000114600F04FBA0000024A0020110701F0AD
:102E600074B8000001FDFFFF30380A2801D20120AC
:102E700070470020704700000F4800B5816985B099
:102E800041F0040181618069694600F0040004900A
:102E90000820009009480190012002900848FEF7A0
:102EA00017FA002201210920FEF77CFB0920FEF71A
:102EB0006BFB05B000BD00000010024000003110A7
:102EC0000008014070B50E4A04464FF080400025CE
:102ED000D46082E823001046FFF7ABF80848610889
:102EE0004830042241606021856001600146483815
:102EF000FFF73CF8BDE8704004210148FFF70AB92C
:102F00001C00002070B5214A064686B0D0690D46E7
:102F100040F00200D061D06900F002000490906996
:102F200040F0040090619069002400F004000490D7
:102F30004020CDE90004022002900320039069465E
:102F40001348FEF7C5F914481249C0E90015C0E955
:102F50000246FEF7B8FE1048012148300022C0E9C1
:102F6000004184600146C4604838FEF725FE032214
:102F700001211D20FEF716FB1D20FEF705FB002199
:102F80000548FEF7CFFE06B070BD000000100240FD
:102F900000080140000400408000002001220421BC
:102FA0000148FEF78ABA000000080140002204210F
:102FB0000148FEF782BA0000000801400F4810B532
:102FC000816986B041F00401816180690C4C00F098
:102FD0000400049004200090012001900020029041
:102FE0000220039069462046FEF772F90022042170
:102FF0002046FEF762FA06B010BD00000010024045
:10300000000801401FB5FEF76BFAFFF785FAFFF7DE
:10301000D5FFFFF731FFFFF789F9012121A208460B
:10302000FFF741FA472140F2F310FFF74BFF47212A
:103030004FF6FE70FFF766FF1B4D1C4FDFF87080E8
:103040001C4EDFF874A000244FF0FF39286800F010
:1030500025FD02460B4619A16846FDF7C1F86A46F0
:1030600001210220FFF71FFA204600F017FD00F0B3
:103070002BF800223B4600F08DF80022434600F07A
:1030800019FB4A4600F061FF00F0BCFA316880B2DB
:1030900088635146204600F02DFD04461420FEF7BB
:1030A000E0F8D3E763776800180000200000F03FE5
:1030B00000C072401C000020CDCC4C3D6678203D05
:1030C00020252E316600000000B5254B21F000427E
:1030D00087B09A4203DC0022134600922BE0214B7A
:1030E0009A4208D140B94FF00100FDF743F9FFF7CC
:1030F000ACFE07B000BD03DBFFF7A4FE07B000BDC8
:1031000002AAFFF791FB10F003014FF001000DD070
:10311000012914D002291AD00DF1080C9CE80F00E7
:10312000FFF746FD07B081F0004100BD0DF1080C2E
:1031300000909CE80F00FFF70FFE07B000BD0DF1F7
:10314000080C9CE80F00FFF733FD07B000BD0DF140
:10315000080C00909CE80F00FFF7FEFDE2E700007E
:10316000FB21E93F0000F07F10B500290AD0087864
:10317000002807D005487844FDF762FC002801D0FC
:10318000002010BD0248784410BD00003E1600002B
:103190003616000010B591EA030F48BF83F00043D4
:1031A00000F19A83841A71EB030C05D2121943EBD8
:1031B0000C03001B61EB0C01DFF824E14FEA115412
:1031C000A4EB135C1EEA430F18BF9EEA445F73D062
:1031D00023EA0E03DCF1200E21EA045143F48013AC
:1031E00032D322FA0CFE10EB0E0023FA0CFE41EB58
:1031F0000E01CCF1200E03FA0EFE10EB0E0051F181
:103200000001B1F5801FCCF1200E32D201EB045148
:1032100012FA0EF2BDE8104058BF7047401C38BF8C
:103220005FEA420218BF7047002814BF20F0010077
:1032300041F100014FEA410313F5001F38BF704709
:10324000A1F1C04100F02EBB012A43EB0302ACF117
:10325000200CDCF11F0E32BF4FF0000E23FA0CF3EE
:1032600010EB030041EB0451B4EB115FD0D0A1EBA4
:10327000045101F5801149085FEA300001EB045167
:103280000ED350F1000038BF12FA0EFE08D1BDE88F
:103290001040C9E7401C38BF5FEA4202CAD1C3E709
:1032A000BDE810404FEA410313F5001F38BF7047D7
:1032B000A1F1C04100F0F6BA9EEA445F08D011EADD
:1032C0005E0FBDE8104004BF01F0004100207047D0
:1032D000BDE8104070B500F097FA00BF64FBBE3E39
:1032E0000000E0FF02494FF0000000F0FCBD00BF0D
:1032F0000000F87F2DE9C04130B4DFF8A0C23CEAFD
:10330000111418BF3CEA131400F0EC8081EA0305A5
:103310001CEA111444EAD57418BF1CEA131500F016
:10332000C780A4EB05044FF0004545EAC12145EAFA
:10333000C32341EA505143EA525304F17F74994246
:1033400004F500344FEAC0204FEAC22208BF904281
:1033500000F09C804FEA13650FF24016765D4FEA4D
:10336000134506FB05F7C7F1807706FB07F74FEA21
:10337000D737A7FB03687642C8F58038A7FB06CE8F
:1033800038BFA8F1010807FB08E64FF0000EA6FBC6
:10339000028CE6FB03CEDCF1000CCEF1004E38BF10
:1033A000AEF1010EA6FB0C584FF000074FF00005E0
:1033B000E6FB0E87A1FB08C6A0FB07CE16EB0E06A8
:1033C00045F10005E1FB076515F1E04E7EBFA4F570
:1033D00080345FEA46066D4116F1800745F100052D
:1033E0004FEA17274FEA066647EA0567A6F1DE4669
:1033F000B6F1805F4FEA15251FD9384624F0010C3D
:1034000005EBC471BCF1FE6F01EB0C1102D8F0BCEE
:10341000BDE8008124425CBF01F5801E9EEAC47FA6
:1034200002D4F0BCBDE80081244238D4F0BCA1F144
:10343000C041BDE8004100F035BA4FEAD22242EA6D
:1034400043524FEAD323A7FB02864FEAD02040EA3B
:10345000415007FB03661EEA0E0F4FEAD12105FB20
:10346000026658BFA6EB0056B6EB00564FEA520E66
:103470004EEAC37E18EB0E0E56EB530EBDD518EB7D
:1034800002085E417F1C55F10005B6E74FF4801538
:103490004FF000074FF000064FF00008ADE7F0BC1A
:1034A0004FF0000001F1C04101F00041BDE8008192
:1034B00011EA0C1F0CEA131500D00CE013EA0C1FE4
:1034C00000F025804FF00000F0BC81EA030101F01C
:1034D0000041BDE80081F0BCBDE8004181EA030184
:1034E00000F0E0B9F0BCBDE8004170B500F08CF927
:1034F000097EFC3E00F007B881EA03014FF00000AE
:1035000001F00041704781EA030100F0CBB9F0BC43
:10351000BDE800414FF0000021497047FFFDFBF975
:10352000F7F5F4F2F0EEEDEBE9E8E6E4E3E1E0DEF6
:10353000DDDBDAD8D7D5D4D3D1D0CFCDCCCBCAC868
:10354000C7C6C5C4C2C1C0BFBEBDBCBBBAB9B8B78F
:10355000B6B5B4B3B2B1B0AFAEADACABAAA9A8A882
:10356000A7A6A5A4A3A3A2A1A09F9F9E9D9C9C9B50
:103570009A999998979796959594939392919190FB
:103580008F8F8E8E8D8C8C8B8B8A8989888887878C
:103590008685858484838382828181800000FF0701
:1035A0000000F87F4FEA41034FEA5353A3F58063CD
:1035B000D3F11E03C8BFD3F1210C0CDD4FF0004244
:1035C00042EAC12242EA505232FA03FC8CEAE17C20
:1035D000ACEBE1707047102BC4BF0020704703F5BF
:1035E000787CBCF1FF3F04D06FF0004282EA2100FA
:1035F000704770B500F008F94992248000207047A8
:10360000F2E700004FEA1153A3F58063D3F11E03E4
:10361000A8BFD3F1200C08DB4FF0004242EAC122E0
:1036200052EA505232FA03F0704709420BD4102B81
:10363000C4BF0020704703F5787CBCF1FF3F05D084
:103640004FF0FF3070474FF00000704770B500F04A
:10365000DBF800BF4992248000207047F0E710F0AB
:10366000004248BF4042B0FA80F310FA03F10AD09A
:10367000C3F11D0303F580634FEA415002EB03528F
:1036800002EBD12170474FF000007047B0FA80F391
:1036900010FA03F10AD0C3F11D0303F580634FEA6A
:1036A00041504FEA035202EBD12170474FF0000026
:1036B00070470000DFF848C170B51CEA111E1EBF3C
:1036C0001CEA13159EEA0C0F95EA0C0F00F06F80B0
:1036D00081EA030423EA4C134EEAD47E21EA4C111A
:1036E00041F4801143F48013AE44A1FB024CA0FBD3
:1036F0000365AEF17F7E361955EB0C05A1FB034C3B
:103700004CF10003A0FB021C16EB0C06654153F1C3
:103710000003094218BF46F0010613F4007F0BD1E5
:103720004FEA03314FEA0530340341EA155140EACC
:1037300016506FF003020AE04FEAC3214FEAC5209A
:10374000F40241EA555140EA56506FF0020202EB92
:103750002E4201EB025585EACE710AD05FEA440C95
:1037600018BF24F0004450F1000041F1000120EAAC
:10377000D47040F2FE7C624500D270BDA84214BFF6
:103780004FF080444FF04044002E08BF0024BEF1AB
:10379000806FA8BFA1F1C041BDE8704080F2828077
:1037A0004FF0000001F1C04101F0004170479EEA76
:1037B0000C0F0CEA131518BF95EA0C0F06D04FF04A
:1037C000000081EA030E0EF0004170BD00F01CF80D
:1037D0008900013E00F007B800F009B84FEA430C39
:1037E0005FEA5C5C08D081EA030100F05BB84FEA55
:1037F000410C5FEA5C5CF6D14FF000000149704774
:103800000000FF070000F87F0EF1020E2EF0030EFD
:103810005EF8046B364205D4012A43EB030515F527
:10382000001F12D8012841EB010C1CF5001F0CD819
:103830000ED14FEAD17C15F5001F0CEB4C0C0CF1AE
:10384000020C08BF4CEBD37C04E04FF0080C01E005
:103850004FEAD37C0CEB4C0526FA05F606F007067A
:10386000B6F1040C06D20EEB860CBDE870404CF0AD
:10387000010C6047DFE80CF0090B02024FF0004139
:103880004FF00000A1F5002170BD19461046012837
:1038900051EB010418BFD4F5001484BF002001F0DF
:1038A000004170BD0808A0F500114FEA31017047D2
:1038B00091EA030F10B581F000413FF573AC83F03E
:1038C000004300F009B8000010B591EA030F48BFAB
:1038D00083F000433FF566AC841A71EB030C07D20A
:1038E00012198CF0004C43EB0C03001B61EB0C0134
:1038F000DFF8A4E14FEA1154A4EB135C1EEA430F76
:1039000018BF9EEA445F00F0B08023EA6E03524283
:1039100021EA0451C3EB6E0338BF5B1EDCF1200EBD
:1039200025D322FA0CFE10EB0E0043FA0CFE41EBFD
:103930000E01CCF1200E03FA0EFE10EB0E0051F139
:103940000001CCF1200E29D412FA0EF201EB045141
:10395000BDE8104058BF7047401C1CBFB2F1004F7B
:10396000704700280CBF491C20F00100704712EB83
:10397000020E43EB030218BF4FF0010E4EEA420263
:10398000ACF1200CDCF11E0E54D943FA0CFE10EB06
:103990000E0051F1FF31CCF11E0ED5D50EF1010E06
:1039A00012FA0EFE404141EB010101EB445C5FEA7B
:1039B0005C5C10D910EBDE7001EB045138BFBEF136
:1039C000004FBDE8104018BF704700280CBF491CCD
:1039D00020F00100704730D24FEAD42C11F50011CD
:1039E00024F400641BD0B1FA81F20B3AA41AA41E8D
:1039F000D2F12003914030FA03F31943904001EBD8
:103A0000CC71002C01EB0451BDE81040A8BF7047F9
:103A100001F1C0414FF0000001F000417047B0FAE1
:103A200080F310FA03F100D110BDE41A173C4805E9
:103A3000C90AE4E701EB045110BD491001EB045140
:103A4000BDE810404FEA300002E04FF0000170473F
:103A50004A0008BF0042F8D0B2F5001F28BF7047E7
:103A600001F000414FF0000070479EEA445F07D02C
:103A700011EA5E0FBDE8104004BF0021002070472E
:103A8000BDE8104070B5FFF7BFFE00BF40DFF63E57
:103A900083F00041104670470000E0FF43004FEA0A
:103AA000D30C4FEA3C0C43401FBF40070CF1605160
:103AB00013F0FE4F70471CF0006F03D100200CF094
:103AC000004170470CF0004343EA507010B540EAE3
:103AD000CC0000F046F900BF000000924FEA000160
:103AE000FFF7E0BE4FF000414FF00000A1F50021CC
:103AF0007047000090EA010F48BF81F0004100F1DB
:103B00008281421A3CBF801A89184FEAD0524FF086
:103B10007F4C1CEA410FA2EBD15318BF9CEA026F05
:103B200000F03B804FF0004C4CEA00204CEA0121B1
:103B300021FA03FC10EB0C0C1ED202F1FF325FEAFB
:103B40001C2040EBC25038BF70471CF07F0F4FEA7B
:103B5000400C18BFBCF17F4F38BF7047C3F1200342
:103B6000994008BF20F00100BCF17F4F38BF70477B
:103B7000A0F1C04000F03BB94FEA3C00000A40EB26
:103B8000C25028BF1CF0FF0F4FEA400CE6D018BF10
:103B9000BCF17F4F38BF7047EAE79CEA026F05D05F
:103BA00010EA5C0F08BF00F00040704710B500F04D
:103BB000D8F800BF64FBBE3E4FF47F0C1CEAD01265
:103BC0001EBF1CEAD11392EA0C0F93EA0C0F00F00F
:103BD000858090EA010F48BF42F4807240F4000CE7
:103BE00041F400002CF07F4120F07F4000B581427D
:103BF000A2EB03020FF2081CACEB504EC0F1000028
:103C00009EF800E04FEA4E0E00FB0EFC38BF490064
:103C10004FEA2C1C02F5FA020CFB0EF34FEACE1E03
:103C20004FEA112C4FEAC1210EEB635E42EB2242B8
:103C30000EFB0CFC4FEA1C5300FB03114FEA112C46
:103C40004FEA01310EFB0CFC4FEADC4C00FB0C117F
:103C5000C14228BF09184CEB03335DF804EB10EBAD
:103C6000410143EBC250B2F57C0F38BF704729D5F4
:103C700012F0F00F1CBF00F1C04000F00040704790
:103C8000008182838485868788898B8C8D8E8F9135
:103C90009293959697999A9C9D9FA0A2A3A5A7A859
:103CA000AAACAEB0B2B3B5B7B9BCBEC0C2C5C7C985
:103CB000CCCED1D4D7D9DCDFE2E6E9ECF0F3F7FAE9
:103CC000FE0000004FEA400C0CF1807CBCF17E4FFE
:103CD00028BF7047B0F1C04000F089B890EA010FEA
:103CE0000CEAD11348BF42F48072624538BF634585
:103CF00007D213F47F0F16D080EA010000F00040D5
:103D0000704710B500F02DF8097EFC3E00F005B8B4
:103D100080EA010000F00040704780EA010000F0F6
:103D2000004000F064B812F47F0F04BF02487047EF
:103D300080EA010000F05BB80000C07FB0FA80F3B9
:103D400010FA03F2C3F19D030AD0D90501EB12204A
:103D5000530638BF704700F1010008BF20F0010092
:103D600070470EF1020E2EF0030E5EF8044B244253
:103D700004D44FEA4102B2F17F4F11D84FEA400319
:103D8000B3F17F4F0CD80ED14FEAD07CB2F17F4F08
:103D90000CEB4C0C0CF1020C08BF4CEBD17C04E09A
:103DA0004FF0080C01E04FEAD17C0CEB4C0324FAF5
:103DB00003F404F00704B4F1040C06D20EEB840CF7
:103DC000BDE810404CF0010C6047DFE80CF007083C
:103DD00002024FF00040A0F5800010BD08464200EE
:103DE00018BFD2F1807288BF00F0004010BDFF21E3
:103DF00041EAD050C005704790EA010F48BF81F0FA
:103E000000413FF57EAE421A04D882F00042A0EB9A
:103E1000020011444FEAD0524FF07F4C1CEA410F90
:103E2000A2EBD15318BF9CEA026F4AD04FF0004C6E
:103E30004CEA00204CEA012121FA03FCB0EB0C0C07
:103E40000FD412F0FE0F36D05FEA4C001DD50012E1
:103E500040EBC25038BF70471CF03F0F18BF70478F
:103E60000BE0A2F101025FEA1C2040EBC25038BF18
:103E700070471CF07F0F18BF7047C3F120039940B3
:103E800014BF401E20F00100704780084FEA122343
:103E900008BF7047B0FA80FCA2EB0C02CCF1280CF2
:103EA00060FA0CF093EA122F04BF00EBC250704787
:103EB0004FEAC3707047130A5FEADC1008BF70470F
:103EC000F6E79CEA026F04D010EA5C0F08BF0020FE
:103ED000704710B5FFF745FF40DFF63E81F0004028
:103EE0007047FCF726BB0CF00F03092B08BF082016
:103EF00000F059800A2B0BD0082B18BF704708BF61
:103F00001CF0400F0AD04FF000004FF00001704746
:103F10001CF0400F18BF4FF0004070471CF0100F0E
:103F200008D020F0704300F07F4242EAD3014FEA0C
:103F30004370704700F0604021F07F4242EA000287
:103F400001F07F4040EA727070474FF0FF0C4CF474
:103F5000E06C1CEA11531CBF9CEA030C9445C2BFE1
:103F6000DA4201EB02517047002B0DD0BCF1000F7B
:103F70000FD0002A01F00041A4BF41F0E04141F020
:103F80007F614FF00000704701F000414FF00000EA
:103F9000704750EA01334FF09B0C18BF4CF0806C17
:103FA0007FF4A0A970471CF4801F11D01CF4E02FEF
:103FB00003D06FEACC31490070474FF04050EFF327
:103FC000008222F0704242EA000282F300887047C9
:103FD0004FF00000704700000000000000000102E8
:103FE00003040607080900000000010203040000A2
:103FF00000000000000000000000000000000000C1
:1040000000F8000000000000003330000000001045
:104010000C06100C0600000000000000000040C06C
:104020007840C0784000043F04043F04040000705E
:1040300088FC08300000001820FF211E0000F00856
:10404000F000E018000000211C031E211E0000F0FB
:104050000888700000001E21232419272110101643
:104060000E00000000000000000000000000000042
:1040700000E01804020000000007182040000002C1
:104080000418E00000000040201807000000404035
:1040900080F0804040000202010F01020200000097
:1040A00000F0000000000101011F010101000000FB
:1040B00000000000000080B0700000000000000060
:1040C00000000000000000010101010101010000E9
:1040D0000000000000000030300000000000000080
:1040E000000080601804006018060100000000E075
:1040F00010080810E000000F102020100F00001022
:1041000010F8000000000020203F20200000007078
:104110000808088870000030282422213000003070
:104120000888884830000018202020110E00000068
:10413000C02010F8000000070424243F240000F8E9
:104140000888880808000019212020110E0000E0CE
:10415000108888180000000F112020110E00003870
:104160000808C83808000000003F00000000007088
:10417000880808887000001C222121221C0000E011
:1041800010080810E0000000312222110F0000008A
:1041900000C0C0000000000000303000000000003F
:1041A00000800000000000008060000000000000AF
:1041B0008040201008000001020408102000404048
:1041C000404040404000040404040404040000088B
:1041D0001020408000000020100804020100007040
:1041E00048080808F0000000003036010000C03028
:1041F000C828E810E0000718272423140B0000004B
:10420000C038E0000000203C23020227382008F8D4
:10421000888888700000203F202020110E00C030C8
:10422000080808083800071820202010080008F89F
:1042300008080810E000203F202020100F0008F898
:104240008888E8081000203F20202320180008F864
:104250008888E8081000203F200003000000C030DC
:1042600008080838000007182020221E020008F85D
:1042700008000008F808203F210101213F20000824
:1042800008F8080800000020203F2020000000005F
:104290000808F8080800C08080807F00000008F847
:1042A00088C028180800203F20012638200008F880
:1042B000080000000000203F20202020300008F8E7
:1042C000F800F8F80800203F003F003F200008F801
:1042D00030C00008F808203F200007183F00E01019
:1042E00008080810E0000F10202020100F0008F828
:1042F00008080808F000203F210101010000E0103B
:1043000008080810E0000F18242438504F0008F85F
:10431000888888887000203F2000030C30200070BF
:104320008808080838000038202121221C001808BD
:1043300008F8080818000000203F2000000008F8D6
:1043400008000008F808001F202020201F0008781F
:10435000880000C83808000007380E010000F8087F
:1043600000F80008F800033C0700073C03000818A9
:1043700068808068180820302C03032C302008380F
:10438000C800C83808000000203F200000001008C6
:104390000808C8380800203826212020180000000E
:1043A00000FE020202000000007F40404000000CBE
:1043B00030C000000000000000010638C00000020C
:1043C0000202FE000000004040407F0000000000AC
:1043D00004020202040000000000000000000000CF
:1043E00000000000000080808080808080800002CB
:1043F00002040000000000000000000000000000B7
:104400008080808000000019242222223F2008F8AA
:10441000008080000000003F112020110E000000ED
:10442000008080800000000E11202020110000007C
:1044300000808088F800000E112020103F2000002E
:10444000808080800000001F222222221300008032
:1044500080F0888888180020203F2020000000007D
:10446000808080808000006B94949493600008F8B2
:10447000008080800000203F210000203F2000803D
:104480009898000000000020203F2020000000003D
:1044900000809898000000C08080807F000008F8AD
:1044A000000080808000203F24022D302000000882
:1044B00008F8000000000020203F2020000080803D
:1044C000808080808000203F20003F20003F80804F
:1044D000008080800000203F210000203F2000005D
:1044E000808080800000001F202020201F0080800E
:1044F00000808000000080FFA12020110E0000003D
:10450000008080808000000E112020A0FF8080802D
:1045100080008080800020203F21200001000000DA
:1045200080808080800000332424242419000080AF
:1045300080E0808000000000001F202000008080BC
:10454000000000808000001F202020103F2080807D
:1045500080000080808000010E300806010080800D
:104560000080008080800F300C030C300F00008032
:104570008000808080000020312E0E31200080805D
:1045800080000080808080818E701806010000808D
:104590008080808080000021302C222130000000AB
:1045A0000000807C020200000000003F404000004C
:1045B0000000FF00000000000000FF0000000002FB
:1045C000027C800000000040403F00000000000628
:1045D00001010202040400000000000000000000CD
:1045E0004C5555555555A53F7751C1166CC156BF11
:1045F0009015CB19A001FA3EAD529C804F7E92BE21
:10460000C4B1B4BD9EEE213ED43888BEE9FAA8BD3F
:1046100000004054FB21F93F3163621A61B4D03D80
:104620000000601A61B4D03D7370032E8A19A33B59
:104630000000002E8A19A33BC14920259A837B39AB
:1046400000000000000000006E83F9A22915444E0E
:10465000D15727FCC0DD34F5999562DB4190433C8E
:10466000AB6351FE61C5BBDE3A6E24B7E0D24D426A
:10467000EA2E49061C92D1091CEB1DFE3EA729B16A
:10468000F53582E88444BB2E26709CE9417E5FB4F8
:1046900039D69139F43953838B5F849C3B28F9BD1B
:1046A000FF97F81F0F9805DE8B112FEF1F6D0A5A29
:1046B000CF7E366DB709CB27663F464F2DEA5F9E0A
:1046C000C7BA27757BF1E5EBF739073DEA92528AC5
:1046D000B15FFB6B085D8D1FA6F810111111813FB2
:1046E000D561C119A0012ABF7DFEB157E31DC73EA8
:1046F000EB9C2B8AE6E55ABE7CD5CF5A3AD9E53DEC
:1047000002400000000000A0000000000540000082
:10471000000000C8000000000C4000000000409CA9
:1047200000000000194000000020BCBE0000000096
:1047300034400000BFC91B8E00000004B5400000DB
:10474000504BCFD06607E2CF010000006C41000063
:104750003E8251AADFEEA73401000000D9420000DA
:10476000DCB5A0E23A301F97FFFFFFFFB445000021
:10477000FD25A0C8E9A3C14FFFFFFFFFFF3F0000D9
:104780000000008000000000FF3F000000000080EB
:1047900000000000D0470008000000201C000000BE
:1047A00028010008EC4700081C0000201C0700003E
:1047B000440100081C00000043000000F8FFFFFF58
:1047C0000C0000000E0000000F0000002E00000092
:1047D0000100000010000000000000000024F400B0
:0C47E000000000000000000000000000CD
:04000005080000ED02
:00000001FF
